:0400000057EF20F0A6
:1020000000269E783EEEE9913E13CECC3EAAAA2A47
:102010003FDB27543580209A3ED9EA04B80060DEC1
:102020003E496E70757420566F6C746167653A2016
:1020300000204A75616E20416C69205275697A20D2
:1020400000496E70757420536F756E643A200050AD
:102050006C6561736520576169743A2000454533AA
:10206000313020402053535500202020644220006E
:10207000252E326600696E66006E616E0020732048
:052080000020560000E5
:104008002B102B102B102B102B102B102B10B42235
:104018002B102B102B102B102B102B102B102B10C0
:104028002B102B102B102B102B102B102B102B10B0
:104038002B102B102B102B102B102B102B102B10A0
:104048002B102B102B102B102B102B102B102B1090
:104058002B102B102B102B102B102B102B102B1080
:104068002B102B102B102B102B102B102B102B1070
:104078002B102B102B102B102B102B102B102B1060
:104088002B102B102B102B102B102B102B102B1050
:104098002B102B102B102B102B102B102B102B1040
:1040A8002B102B10FF0077EF4CF001018E6B66C1CF
:1040B8008FF167C190F168C191F169C192F192BF26
:1040C8006AEF20F068EF20F07EEF20F0010E8E6F8F
:1040D8008FC100F190C101F191C102F192C103F1C8
:1040E80071EC4EF000C18FF101C190F102C191F164
:1040F80003C192F1000E0101946F000E936F9FC1EE
:104108007EF1A0C17FF18E51D8B48DEF20F08FEFF2
:1041180020F0A3EF20F08E51D8A495EF20F097EF70
:1041280020F09DEF20F0000E746F2B0E736FA1EF3F
:1041380020F0000E746F2D0E736F73C18EF18FC156
:1041480000F190C101F191C102F192C103F1EAECD1
:1041580043F0010100050111D8A4B5EF20F0B7EF35
:1041680020F0E7EF20F08E51D8B4BDEF20F0BFEF7C
:1041780020F0C8EF20F08EC1A5F17E07D8A07F07F8
:10418800000E946F010E936FA50E9325006F010E1C
:104198009421016F750E026F38EC4DF00101FD0E90
:1041A8007E27FF0E7F2364C110F165C111F1A50EB2
:1041B800126F010E136F7EC114F17FC115F152EC1D
:1041C8004AF053EF25F08FC100F190C101F191C180
:1041D80002F192C103F1EAEC43F00101005101112F
:1041E800D8A4F9EF20F0FBEF20F018EF21F08E5162
:1041F800D8B401EF21F003EF21F00CEF21F08EC1CC
:10420800A5F17E07D8A07F07000E946F010E936F6B
:10421800A50E9325006F010E9421016F790E026F90
:1042280038EC4DF0D2EF20F0000E956F000E966F2F
:10423800800E976F3F0E986F000E7D6F000E7C6F9B
:104248008FC100F190C101F191C102F192C103F156
:10425800000E046F000E056F000E066F000E076F4C
:10426800E0EC48F00101D8B03CEF21F03EEF21F03E
:1042780020EF22F04AEF21F080C195F181C196F13B
:1042880082C197F183C198F17C4B7D2B95C10EF1CA
:1042980096C10FF197C110F198C111F1000E126F7C
:1042A800000E136F200E146F410E156F15EC33F0CE
:1042B8000EC180F10FC181F110C182F111C183F1EA
:1042C800010180518F5D006F81519059016F8251BA
:1042D8009159026F83519259036FF6EC4BF001012B
:1042E80003BF82EF21F003510211011109E1020E0F
:1042F800005DD8A082EF21F084EF21F040EF21F09B
:1043080080C127F181C128F182C129F183C12AF135
:104318008FC12BF190C12CF191C12DF192C12EF1D9
:1043280062EC42F00101D8A09CEF21F09EEF21F051
:1043380040EF21F095518F5D006F96519059016FB4
:1043480097519159026F98519259036FF6EC4BF0BF
:10435800010103BFBDEF21F003510211011107E173
:10436800020E005DD8B0BBEF21F0BDEF21F006EFE3
:1043780022F095C18FF196C190F197C191F198C142
:1043880092F120EF22F095C137F196C138F197C12B
:1043980039F198C13AF1000E3B6F000E3C6F200EC8
:1043A8003D6F410E3E6F60EC37F037C195F138C173
:1043B80096F139C197F13AC198F101017C07D8A06B
:1043C8007D0795518F5D006F96519059016F9751F8
:1043D8009159026F98519259036FF6EC4BF0010115
:1043E80003BF04EF22F003510211011107E1020E8D
:1043F800005DD8B002EF22F004EF22F006EF22F0C1
:10440800BDEF21F08FC127F190C128F191C129F1A9
:1044180092C12AF195C12BF196C12CF197C12DF1CA
:1044280098C12EF162EC42F00101D8A01EEF22F0F3
:1044380020EF22F0C7EF21F06AC176F176C177F15B
:10444800A2BF29EF22F02BEF22F031EF22F0A1C119
:104458006FF1A2C170F135EF22F0000E706F060EF9
:104468006F6F6FC17AF170C17BF17A4B7B2B660E4F
:104478007719D8A442EF22F044EF22F064EF22F03B
:104488007DBF4BEF22F049EF22F057EF22F0000EEC
:10449800956F000E966F800E976F3F0E986F000E07
:1044A8007D6F000E7C6F670E7619D8B45EEF22F030
:1044B80060EF22F064EF22F07C517A277D517B2354
:1044C800000E856F000E846F8FC186F190C187F151
:1044D80091C188F192C189F195C180F196C181F1AC
:1044E80097C182F198C183F1F6EF22F086C137F1C6
:1044F80087C138F188C139F189C13AF195C13BF1D9
:1045080096C13CF197C13DF198C13EF160EC37F09E
:1045180037C150F138C151F139C152F13AC153F1A3
:104528006FEC3DF050C18AF151C18BF152C18CF151
:1045380053C18DF18AC100F18BC101F18CC102F127
:104548008DC103F1DEEC41F000C178F101C179F1D0
:1045580086C137F187C138F188C139F189C13AF18B
:104568008AC112F18BC113F18CC114F18DC115F1FF
:1045780095C10EF196C10FF197C110F198C111F1D3
:1045880015EC33F00EC13BF10FC13CF110C13DF108
:1045980011C13EF180EC4DF037C186F138C187F189
:1045A80039C188F13AC189F195C137F196C138F11D
:1045B80097C139F198C13AF1000E01013B6F000E25
:1045C8003C6F200E3D6F410E3E6F60EC37F037C1F7
:1045D80095F138C196F139C197F13AC198F10101C5
:1045E800844B852B7A51845D8551800A6B6F7B5192
:1045F800800A6B59D8A003EF23F005EF23F07AEF78
:1046080022F095C10EF196C10FF197C110F198C132
:1046180011F1000E126F000E136FA00E146F400EF2
:10462800156F15EC33F00EC18AF10FC18BF110C173
:104638008CF111C18DF186C127F187C128F188C19C
:1046480029F189C12AF18AC12BF18BC12CF18CC1C6
:104658002DF18DC12EF162EC42F00101D8B037EF97
:1046680023F039EF23F043EF23F0000E8A6F000E9A
:104678008B6F000E8C6F000E8D6F6CEF23F086C170
:1046880000F187C101F188C102F189C103F18AC132
:1046980004F18BC105F18CC106F18DC107F1E0EC85
:1046A80048F00101D8A05BEF23F05DEF23F06CEF39
:1046B80023F078B162EF23F064EF23F06CEF23F07E
:1046C800000E8A6F000E8B6F000E8C6F000E8D6FC0
:1046D8008FC127F190C128F191C129F192C12AF126
:1046E8008AC12BF18BC12CF18CC12DF18DC12EF11A
:1046F8005EEC2EF027C186F128C187F129C188F127
:104708002AC189F186C127F187C128F188C129F119
:1047180089C12AF1000E0101126F000E136F200EDD
:10472800146F410E156F80C10EF181C10FF182C166
:1047380010F183C111F115EC33F00EC12BF10FC14B
:104748002CF110C12DF111C12EF162EC42F00101E2
:10475800D8A0B1EF23F0B3EF23F0DBEF23F07C4BCD
:104768007D2B80C10EF181C10FF182C110F183C18F
:1047780011F1000E126F000E136F200E146F410E10
:10478800156F15EC33F00EC180F10FC181F110C126
:1047980082F111C183F1660E01017719D8A4D7EF10
:1047A80023F0D9EF23F0DBEF23F07A4B7B2B80C18A
:1047B80095F181C196F182C197F183C198F17CC1CD
:1047C8006DF17DC16EF1756B000E726F000E716F29
:1047D800000E856F000E846FD8EF24F086C137F184
:1047E80087C138F188C139F189C13AF195C13BF1E6
:1047F80096C13CF197C13DF198C13EF160EC37F0AC
:1048080037C150F138C151F139C152F13AC153F1B0
:104818006FEC3DF050C18AF151C18BF152C18CF15E
:1048280053C18DF18AC100F18BC101F18CC102F134
:104838008DC103F1DEEC41F0010101BF2FEF24F03F
:10484800015107E10A0E005DD8B02DEF24F02FEFDB
:1048580024F03FEF24F08AC100F18BC101F18CC133
:1048680002F18DC103F1DEEC41F000C178F101C124
:1048780079F143EF24F0000E796F090E786F01018A
:104888007551D8A44AEF24F04CEF24F074EF24F0CB
:104898006EBF53EF24F051EF24F074EF24F0A50E0F
:1048A8009325D96E010E9421DA6E2E0EDF6E934B8E
:1048B800942B7E07D8A07F07010E756F74EF24F044
:1048C800A50E9325D96E010E9421DA6E300EDF6E97
:1048D800934B942B7E07D8A07F077107D8A0720747
:1048E80071517211D8A47BEF24F07DEF24F064EFAE
:1048F80024F0A50E9325D96E010E9421DA6E785115
:10490800300FDF6E934B942B7E07D8A07F0786C1AC
:1049180037F187C138F188C139F189C13AF18AC1C3
:1049280012F18BC113F18CC114F18DC115F195C130
:104938000EF196C10FF197C110F198C111F115EC64
:1049480033F00EC13BF10FC13CF110C13DF111C173
:104958003EF180EC4DF037C186F138C187F139C19D
:1049680088F13AC189F195C137F196C138F197C1FB
:1049780039F198C13AF1000E01013B6F000E3C6F0E
:10498800200E3D6F410E3E6F60EC37F037C195F158
:1049980038C196F139C197F13AC198F101016D0713
:1049A800D8A06E07844B852B7A51845D8551800A87
:1049B8006B6F7B51800A6B59D8B0E5EF24F0E7EFB5
:1049C80024F0F5EF24F094BFF3EF24F0945109E1BB
:1049D8004B0E935DD8A0F3EF24F0F5EF24F0F2EF3F
:1049E80023F0000E856F4F0E846FA50E8425D96EB7
:1049F800010E8521DA6EDF6AA50E6B6F010E6C6FF2
:104A080093516B5F94516C5B84516B25006F85519A
:104A18006C21016FA50E026F010E036F93C104F1A3
:104A280094C105F19BEC4BF001019351845D936FA8
:104A380094518559946F8E51D8A425EF25F028EF0D
:104A480025F0010E29EF25F0000E846F856B8E513D
:104A5800D8B431EF25F033EF25F03FEF25F0930779
:104A6800D8A09407A50E9325D96E010E9421DA6E6D
:104A780060003BF6DFFF84517E5F85517F5B64C138
:104A880010F165C111F1A50E9325126F010E942145
:104A9800136F7EC114F17FC115F152EC4AF0120078
:104AA8000001816B36C082F037C083F038C084F0D3
:104AB80039C085F085BF65EF25F063EF25F079EF04
:104AC80025F0010E816F82C001F083C002F084C01E
:104AD80003F085C004F08EEC4EF001C082F002C0F5
:104AE80083F003C084F004C085F0000E0001876FD6
:104AF800000E866F9FC171F0A0C172F08151D8B4C9
:104B080088EF25F08AEF25F09EEF25F08151D8A493
:104B180090EF25F092EF25F098EF25F0000E676FE3
:104B28002B0E666F9CEF25F0000E676F2D0E666FDB
:104B380066C081F082C001F083C002F084C003F037
:104B480085C004F06AEC44F001040210D8A4AFEF69
:104B580025F0B1EF25F0E2EF25F000018151D8B43E
:104B6800B8EF25F0BAEF25F0C3EF25F081C0A5F125
:104B78007107D8A07207000E876F010E866FA50E09
:104B88008625016E010E8721026E750E036EC7EC35
:104B98004DF00001FD0E7127FF0E722334C011F095
:104BA80035C012F0A50E136E010E146E71C015F00B
:104BB80072C016F0C4EC4AF04CEF2AF082C001F043
:104BC80083C002F084C003F085C004F06AEC44F0AE
:104BD80001500210D8A4F3EF25F0F5EF25F013EFFC
:104BE80026F000018151D8B4FCEF25F0FEEF25F046
:104BF80007EF26F081C0A5F17107D8A07207000E53
:104C0800876F010E866FA50E8625016E010E87211E
:104C1800026E790E036EC7EC4DF0CDEF25F0000E55
:104C28000001886F000E896F800E8A6F3F0E8B6FB0
:104C3800000E706F000E6F6F82C001F083C002F02B
:104C480084C003F085C004F0000E056E000E066EE9
:104C5800000E076E000E086E36EC49F0D8B037EF3C
:104C680026F039EF26F018EF27F046EF26F073C04C
:104C780088F074C089F075C08AF076C08BF00001A6
:104C88006F4B702B88C00FF089C010F08AC011F0EC
:104C98008BC012F0000E136E000E146E200E156EEF
:104CA800410E166E3BEC35F00FC073F010C074F077
:104CB80011C075F012C076F000017351825D016E6B
:104CC80074518359026E75518459036E7651855912
:104CD800046E22EC4CF004BE7DEF26F00450031065
:104CE800021009E1020E015CD8A07DEF26F07FEFEB
:104CF80026F03BEF26F073C028F074C029F075C089
:104D08002AF076C02BF082C02CF083C02DF084C02E
:104D18002EF085C02FF068EC43F0D8A096EF26F06F
:104D280098EF26F03BEF26F000018851825D016E76
:104D380089518359026E8A518459036E8B51855962
:104D4800046E22EC4CF004BEB7EF26F004500310BA
:104D5800021007E1020E015CD8B0B5EF26F0B7EFFC
:104D680026F0FFEF26F088C082F089C083F08AC061
:104D780084F08BC085F018EF27F088C001F089C057
:104D880002F08AC003F08BC004F0000E056E000E1E
:104D9800066E200E076E410E086E29EC39F001C030
:104DA80088F002C089F003C08AF004C08BF00001CB
:104DB8006F07D8A070078851825D016E89518359A9
:104DC800026E8A518459036E8B518559046E22EC08
:104DD8004CF004BEFDEF26F004500310021007E16A
:104DE800020E015CD8B0FBEF26F0FDEF26F0FFEFD6
:104DF80026F0B7EF26F082C028F083C029F084C0DF
:104E08002AF085C02BF088C02CF089C02DF08AC00C
:104E18002EF08BC02FF068EC43F0D8A016EF27F0E7
:104E280018EF27F0C1EF26F03AC069F069C06AF0C0
:104E38000101A2BF22EF27F024EF27F02AEF27F085
:104E4800A1C162F0A2C163F02FEF27F0000E0001AC
:104E5800636F060E626F62C06DF063C06EF0000192
:104E68006D4B6E2B660E6A19D8A43DEF27F03FEF05
:104E780027F05FEF27F070BF46EF27F044EF27F0E9
:104E880052EF27F0000E886F000E896F800E8A6F30
:104E98003F0E8B6F000E706F000E6F6F670E6919F3
:104EA800D8B459EF27F05BEF27F05FEF27F06F5189
:104EB8006D2770516E23000E786F000E776F82C0D9
:104EC80079F083C07AF084C07BF085C07CF088C01C
:104ED80073F089C074F08AC075F08BC076F0F0EF7B
:104EE80027F079C001F07AC002F07BC003F07CC0E3
:104EF80004F088C005F089C006F08AC007F08BC0AE
:104F080008F029EC39F001C01AF002C01BF003C008
:104F18001CF004C01DF07AEC3EF01AC07DF01BC0F6
:104F28007EF01CC07FF01DC080F07DC001F07EC007
:104F380002F07FC003F080C004F0E5EC42F001C04D
:104F48006BF002C06CF079C028F07AC029F07BC001
:104F58002AF07CC02BF07DC013F07EC014F07FC017
:104F680015F080C016F088C00FF089C010F08AC014
:104F780011F08BC012F03BEC35F00FC02CF010C0D4
:104F88002DF011C02EF012C02FF0EAEC4DF028C021
:104F980079F029C07AF02AC07BF02BC07CF088C059
:104FA80001F089C002F08AC003F08BC004F0000E43
:104FB800056E000E066E200E076E410E086E29EC77
:104FC80039F001C088F002C089F003C08AF004C03B
:104FD8008BF00001774B782B6D51775D7851800A03
:104FE8003B6E6E51800A3B58D8A0FDEF27F0FFEFCB
:104FF80027F075EF27F088C00FF089C010F08AC03D
:1050080011F08BC012F0000E136E000E146EA00E7D
:10501800156E400E166E3BEC35F00FC07DF010C0DB
:105028007EF011C07FF012C080F079C028F07AC0FD
:1050380029F07BC02AF07CC02BF07DC02CF07EC00C
:105048002DF07FC02EF080C02FF068EC43F0D8B070
:1050580030EF28F032EF28F03DEF28F0000E000185
:105068007D6F000E7E6F000E7F6F000E806F66EF03
:1050780028F079C001F07AC002F07BC003F07CC050
:1050880004F07DC005F07EC006F07FC007F080C048
:1050980008F036EC49F0D8A054EF28F056EF28F085
:1050A80066EF28F000016BB15CEF28F05EEF28F0A6
:1050B80066EF28F0000E7D6F000E7E6F000E7F6F8A
:1050C800000E806F82C001F083C002F084C003F03C
:1050D80085C004F07DC005F07EC006F07FC007F0F3
:1050E80080C008F0BAEC30F001C079F002C07AF064
:1050F80003C07BF004C07CF079C028F07AC029F0A6
:105108007BC02AF07CC02BF0000E136E000E146ECC
:10511800200E156E410E166E73C00FF074C010F09D
:1051280075C011F076C012F03BEC35F00FC02CF0D2
:1051380010C02DF011C02EF012C02FF068EC43F013
:10514800D8A0A9EF28F0ABEF28F0D4EF28F00001A1
:105158006F4B702B73C00FF074C010F075C011F056
:1051680076C012F0000E136E000E146E200E156E2F
:10517800410E166E3BEC35F00FC073F010C074F0A2
:1051880011C075F012C076F0660E00016A19D8A435
:10519800D0EF28F0D2EF28F0D4EF28F06D4B6E2B2B
:1051A80073C088F074C089F075C08AF076C08BF03F
:1051B8006FC060F070C061F00001686B000E656F31
:1051C800000E646F000E786F000E776FD1EF29F034
:1051D80079C001F07AC002F07BC003F07CC004F013
:1051E80088C005F089C006F08AC007F08BC008F0B7
:1051F80029EC39F001C01AF002C01BF003C01CF002
:1052080004C01DF07AEC3EF01AC07DF01BC07EF0A1
:105218001CC07FF01DC080F07DC001F07EC002F090
:105228007FC003F080C004F0E5EC42F002BE28EF36
:1052380029F0025007E10A0E015CD8B026EF29F0E8
:1052480028EF29F038EF29F07DC001F07EC002F088
:105258007FC003F080C004F0E5EC42F001C06BF0C1
:1052680002C06CF03DEF29F0000E00016C6F090ED2
:105278006B6F00016851D8A444EF29F046EF29F07C
:105288006EEF29F061BF4DEF29F04BEF29F06EEF7B
:1052980029F0A50E8625D96E010E8721DA6E2E0E0D
:1052A800DF6E864B872B7107D8A07207010E686FD7
:1052B8006EEF29F0A50E8625D96E010E8721DA6ECC
:1052C800300EDF6E864B872B7107D8A072076407F4
:1052D800D8A0650764516511D8A475EF29F077EF58
:1052E80029F05EEF29F0A50E8625D96E010E8721DB
:1052F800DA6E6B51300FDF6E864B872B7107D8A0A3
:10530800720779C028F07AC029F07BC02AF07CC0E7
:105318002BF07DC013F07EC014F07FC015F080C064
:1053280016F088C00FF089C010F08AC011F08BC049
:1053380012F03BEC35F00FC02CF010C02DF011C06E
:105348002EF012C02FF0EAEC4DF028C079F029C0F9
:105358007AF02AC07BF02BC07CF088C001F089C0AD
:1053680002F08AC003F08BC004F0000E056E000E38
:10537800066E200E076E410E086E29EC39F001C04A
:1053880088F002C089F003C08AF004C08BF00001E5
:105398006007D8A06107774B782B6D51775D7851FE
:1053A800800A3B6E6E51800A3B58D8B0DEEF29F078
:1053B800E0EF29F0EEEF29F087BFECEF29F08751F5
:1053C80009E14B0E865DD8A0ECEF29F0EEEF29F04D
:1053D800ECEF28F0000E786F4F0E776FA50E77254B
:1053E800D96E010E7821DA6EDF6AA50E3B6E010ECA
:1053F8003C6E86513B5E87513C5A77513B24016E87
:1054080078513C20026EA50E036E010E046E86C014
:1054180005F087C006F0C9EC4BF000018651775DB6
:10542800866F87517859876F8151D8A41EEF2AF06B
:1054380021EF2AF0010E22EF2AF0000E776F786B29
:105448008151D8B42AEF2AF02CEF2AF038EF2AF04D
:105458008607D8A08707A50E8625D96E010E872155
:10546800DA6E600007F2DFFF7751715F7851725B87
:1054780034C011F035C012F0A50E8625136E010E4A
:105488008721146E71C015F072C016F0C4EC4AF092
:105498001200A8C04AF2A9C04BF2AAC04CF2ABC095
:1054A8004DF250C14AF251C14BF252C14CF253C1B4
:1054B8004DF2000E0201216F000E206F4D5109E1DF
:1054C800800E4C5DD8A06BEF2AF06DEF2AF074EFD8
:1054D8002AF04DAF72EF2AF074EF2AF0E3EF2AF0CA
:1054E800D8904A350101546F02014B350101556FBF
:1054F80002014C350101566F02014D350101576F0C
:105508005451551156115711D8A48DEF2AF08FEF29
:105518002AF0A2EF2AF0000E02014A6F000E4B6F2C
:10552800800E4C6FFF0E4D6F4AC250F14BC251F1C5
:105538004CC252F14DC253F15DEF2EF002014DAF56
:10554800A8EF2AF0AAEF2AF0BAEF2AF0000E00011D
:10555800B56F210EB46FFF0E02014A6FFF0E4B6F3D
:10556800FF0E4C6F7F0E4D6F98EF2AF0E70E202745
:10557800FF0E212350C10EF151C10FF152C110F19C
:1055880053C111F1000E0101126F000E136F000ECE
:10559800146F4C0E156F15EC33F00EC150F10FC19E
:1055A80051F110C152F111C153F150C14AF251C128
:1055B8004BF252C14CF253C14DF211EF2BF0800E59
:1055C8004C5D7F0E4D59D8A0ECEF2AF0EEEF2AF093
:1055D800F8EF2AF050C150F151C151F152C152F1C6
:1055E80053C153F15DEF2EF0800E4C1909E13F0EC7
:1055F8004D194A114B11D8A404EF2BF006EF2BF0EC
:1056080011EF2BF0000E0101506F000E516F000ECC
:10561800526F000E536F5DEF2EF00D0E02014A27F8
:10562800FB0E4B234A0E4C23000E4D234AC254F165
:105638004BC255F14CC256F14DC257F1180E2BEF23
:105648002BF00101D8905733563355335433E82E95
:1056580025EF2BF0810E5425586FFF0E5521596FF9
:105668005851020120270101595102012123FF0E3F
:105678004A150101546FFF0E02014B150101556FC8
:105688007F0E02014C150101566F000E02014D15E7
:105698000101576FF30E542502014A6F040E0101F0
:1056A800552102014B6F350E0101562102014C6F45
:1056B8003F0E0101572102014D6F4AC227F14BC22B
:1056C80028F14CC229F14DC22AF1000E01012B6FBD
:1056D800000E2C6F800E2D6FBF0E2E6F5EEC2EF01D
:1056E80027C146F228C147F229C148F22AC149F226
:1056F80046C237F147C238F148C239F149C23AF1D6
:10570800000E01012B6F000E2C6F000E2D6F400E46
:105718002E6F46C227F147C228F148C229F149C273
:105728002AF15EEC2EF027C13BF128C13CF129C1DA
:105738003DF12AC13EF160EC37F037C132F238C191
:1057480033F239C134F23AC135F232C20EF133C202
:105758000FF134C210F135C211F132C212F133C265
:1057680013F134C214F135C215F115EC33F00EC142
:1057780036F20FC137F210C138F211C139F236C210
:105788000EF137C20FF138C210F139C211F136C229
:1057980012F137C213F138C214F139C215F115EC00
:1057A80033F00EC13AF20FC13BF210C13CF211C105
:1057B8003DF2130E01012B6FCE0E2C6FCC0E2D6F08
:1057C8003E0E2E6F260E126F9E0E136F780E146FFC
:1057D8003E0E156F3AC20EF13BC20FF13CC210F1FA
:1057E8003DC211F115EC33F00EC127F10FC128F1BC
:1057F80010C129F111C12AF15EEC2EF027C13EF249
:1058080028C13FF229C140F22AC141F23EC20EF13D
:105818003FC20FF140C210F141C211F13AC212F178
:105828003BC213F13CC214F13DC215F115EC33F043
:105838000EC104F20FC105F210C106F211C107F240
:10584800AA0E01012B6FAA0E2C6F2A0E2D6F3F0E88
:105858002E6FEE0E126FE90E136F910E146F3E0E3F
:10586800156F3AC20EF13BC20FF13CC210F13DC2B6
:1058780011F115EC33F00EC127F10FC128F110C159
:1058880029F111C12AF15EEC2EF027C13EF228C1A0
:105898003FF229C140F22AC141F23EC20EF13FC295
:1058A8000FF140C210F141C211F136C212F137C2F4
:1058B80013F138C214F139C215F115EC33F00EC1E9
:1058C80008F20FC109F210C10AF211C10BF208C2A5
:1058D80027F109C228F10AC229F10BC22AF104C230
:1058E8002BF105C22CF106C22DF107C22EF15EEC98
:1058F8002EF027C100F228C101F229C102F22AC103
:1059080003F2000E0101126F000E136F000E146FE8
:105918003F0E156F46C20EF147C20FF148C210F193
:1059280049C211F115EC33F00EC13EF20FC13FF23E
:1059380010C140F211C141F23EC20EF13FC20FF157
:1059480040C210F141C211F146C212F147C213F12F
:1059580048C214F149C215F115EC33F00EC12EF20C
:105968000FC12FF210C130F211C131F246C237F126
:1059780047C238F148C239F149C23AF12EC23BF167
:105988002FC23CF130C23DF131C23EF180EC4DF006
:1059980037C142F238C143F239C144F23AC145F243
:1059A80042C24AF243C24BF244C24CF245C24DF2E3
:1059B800000E02014A17F00E4B17FF0E4C17FF0E90
:1059C8004D174AC242F24BC243F24CC244F24DC296
:1059D80045F242C23BF143C23CF144C23DF145C2EB
:1059E8003EF146C237F147C238F148C239F149C2DF
:1059F8003AF180EC4DF037C10CF238C10DF239C1E3
:105A08000EF23AC10FF22EC23BF12FC23CF130C266
:105A18003DF131C23EF10CC237F10DC238F10EC270
:105A280039F10FC23AF180EC4DF037C110F238C1AC
:105A380011F239C112F23AC113F232C212F133C271
:105A480013F134C214F135C215F100C22BF101C2B1
:105A58002CF102C22DF103C22EF12EC227F12FC262
:105A680028F130C229F131C22AF15EEC2EF027C1AB
:105A78000EF128C10FF129C110F12AC111F115EC5D
:105A880033F00EC12AF20FC12BF210C12CF211C152
:105A98002DF210C227F111C228F112C229F113C246
:105AA8002AF12AC22BF12BC22CF12CC22DF12DC2C6
:105AB8002EF15EEC2EF027C126F228C127F229C16B
:105AC80028F22AC129F220C200F121C201F1010104
:105AD800000E01BFFF0E026F036F010E83EC3FF053
:105AE80000C122F201C123F202C124F203C125F24E
:105AF800D90E0101126FEA0E136F040E146FB80E5F
:105B0800156F42C22BF143C22CF144C22DF145C29C
:105B18002EF126C227F127C228F128C229F129C26D
:105B28002AF15EEC2EF027C10EF128C10FF129C130
:105B380010F12AC111F115EC33F00EC114F20FC1A6
:105B480015F210C116F211C117F214C22BF115C2C9
:105B58002CF116C22DF117C22EF1DB0E0101126FC6
:105B6800270E136F540E146F350E156F22C20EF1E7
:105B780023C20FF124C210F125C211F115EC33F044
:105B88000EC127F10FC128F110C129F111C12AF165
:105B98005EEC2EF027C118F228C119F229C11AF2B9
:105BA8002AC11BF2000E0101126F600E136FDE0E88
:105BB800146F3E0E156F26C20EF127C20FF128C2D0
:105BC80010F129C211F115EC33F00EC12BF10FC100
:105BD8002CF110C12DF111C12EF118C227F119C2F3
:105BE80028F11AC229F11BC22AF15EEC2EF027C156
:105BF8002AF228C12BF229C12CF22AC12DF2000E5B
:105C08000101126F600E136FDE0E146F3E0E156FDA
:105C180042C20EF143C20FF144C210F145C211F164
:105C280015EC33F00EC12BF10FC12CF110C12DF181
:105C380011C12EF12AC227F12BC228F12CC229F159
:105C48002DC22AF15EEC2EF027C11CF228C11DF2EC
:105C580029C11EF22AC11FF21CC227F11DC228F158
:105C68001EC229F11FC22AF1800E0101126F200EF7
:105C7800136F9A0E146F3E0E156F22C20EF123C2D7
:105C88000FF124C210F125C211F115EC33F00EC149
:105C98002BF10FC12CF110C12DF111C12EF15EECC9
:105CA8002EF027C150F128C151F129C152F12AC162
:105CB80053F1120001012A51800B336F2A512A2512
:105CC800356F29AF6AEF2EF06CEF2EF06DEF2EF0E6
:105CD80035813551D8B473EF2EF075EF2EF089EF7A
:105CE8002EF03529D8A47BEF2EF07DEF2EF085EF2E
:105CF8002EF0000E276F000E286F000E296F000E81
:105D08002A6F298F2A6B91EF2EF0000E276F000E55
:105D1800286F000E296F000E2A6F2E51800B346FEA
:105D280033513419D8B49BEF2EF09DEF2EF09EEF2F
:105D38002EF0338D2E512E25346F2DAFA6EF2EF079
:105D4800A8EF2EF0A9EF2EF034813451D8B4AFEF7C
:105D58002EF0B1EF2EF0C5EF2EF03429D8A4B7EF0E
:105D68002EF0B9EF2EF0C1EF2EF0000E2B6F000EC3
:105D78002C6F000E2D6F000E2E6F2D8F2E6BCDEF1A
:105D88002EF0000E2B6F000E2C6F000E2D6F000EE4
:105D98002E6F3551345DD8B0D4EF2EF0D6EF2EF0FB
:105DA800FDEF2EF033ADDBEF2EF0DDEF2EF0DFEF61
:105DB8002EF0800E331B35C136F134C135F136C1B2
:105DC80034F127C136F12BC127F136C12BF128C197
:105DD80036F12CC128F136C12CF129C136F12DC17B
:105DE80029F136C12DF12AC136F12EC12AF136C169
:105DF8002EF1366B355134C12FF1306B2F5F000E09
:105E0800305B30BF11EF2FF0305109E11A0E2F5DD2
:105E1800D8A011EF2FF013EF2FF04AEF2FF02751F2
:105E2800281129112A11D8A41CEF2FF01FEF2FF0E9
:105E3800010E20EF2FF0000E366F000E276F000EB8
:105E4800286F000E296F000E2A6F34C135F153EF09
:105E58002FF036A132EF2FF034EF2FF03AEF2FF07A
:105E6800D89036310109366F3CEF2FF0D890363391
:105E780027A141EF2FF043EF2FF044EF2FF0368F9B
:105E88002A352A33293328332733352B3451355DC6
:105E9800D8A051EF2FF053EF2FF02DEF2FF033BD97
:105EA80058EF2FF05AEF2FF09AEF2FF03551D8A472
:105EB80060EF2FF062EF2FF06CEF2FF0000E276FDE
:105EC800000E286F000E296F000E2A6FB9EF30F010
:105ED8002B5127272C5128232D5129232E512A2392
:105EE8002AA179EF2FF07BEF2FF027EF30F036A1C2
:105EF80080EF2FF082EF2FF088EF2FF0D890363117
:105F08000109366F8AEF2FF0D890363327A18FEF2B
:105F18002FF091EF2FF092EF2FF0368F2A352A339A
:105F2800293328332733352B27EF30F02B51275DC2
:105F38002C5128592D5129592A51800A2F6F2E5139
:105F4800800A2F59D8B0ABEF2FF0ADEF2FF0D8EF74
:105F58002FF027512B5D2F6F28512C59306F295165
:105F68002D59316F2A512E59326FFF0E2F25276F69
:105F7800FF0E3021286FFF0E3121296FFF0E3221CD
:105F88002A6F800E331B366D3651D8A4CEEF2FF012
:105F9800D0EF2FF0E0EF2FF0010E2727000E282377
:105FA80029232A23E0EF2FF02B51275F2C51285B60
:105FB8002D51295B2E512A5B2751281129112A11AD
:105FC800D8A4E9EF2FF0EBEF2FF020EF30F03651A7
:105FD800D8A4F1EF2FF0F3EF2FF020EF30F0000E00
:105FE800276F000E286F000E296F000E2A6FB9EF79
:105FF80030F0D8902737283729372A3736AF07EFB8
:1060080030F009EF30F00AEF30F0278136A10FEFBA
:1060180030F011EF30F015EF30F0D880363717EF49
:1060280030F0D89036373551D8B41DEF30F01FEF27
:1060380030F020EF30F0350729AF25EF30F027EFAB
:1060480030F0FDEF2FF0346B36AF2DEF30F02FEF3F
:1060580030F047EF30F036C12FF17F0E2F17D8B44C
:1060680038EF30F03AEF30F03EEF30F0010E346F99
:1060780047EF30F027A143EF30F045EF30F047EF1E
:1060880030F03AEF30F03451D8B44DEF30F04FEFF4
:1060980030F07AEF30F0010E2727000E282329234D
:1060A8002A232AA15AEF30F05CEF30F07AEF30F073
:1060B80027C12FF128C130F129C131F12AC132F1AC
:1060C80032353233313330332F332FC127F130C1DA
:1060D80028F131C129F132C12AF13529D8B477EF35
:1060E80030F079EF30F07AEF30F0352B3529D8B42D
:1060F80080EF30F082EF30F08AEF30F03551D8A4DD
:1061080088EF30F08AEF30F09BEF30F0000E276F09
:10611800000E286F000E296F000E2A6F3551D8A483
:1061280098EF30F09AEF30F09BEF30F0336B35A1F9
:10613800A0EF30F0A2EF30F0A5EF30F0298FA6EFF6
:1061480030F0299FD89035312A6F33AFAEEF30F059
:10615800B0EF30F0B1EF30F02A8F27C127F128C116
:1061680028F129C129F12AC12AF112000450800B13
:106178000D6E045004240F6E03AEC5EF30F0C7EF68
:1061880030F0C8EF30F00F800F50D8B4CEEF30F0B9
:10619800D0EF30F0E4EF30F00F28D8A4D6EF30F08D
:1061A800D8EF30F0E0EF30F0000E016E000E026E16
:1061B800000E036E000E046E038E046AECEF30F0DE
:1061C800000E016E000E026E000E036E000E046ECD
:1061D8000850800B0E6E0D500E18D8B4F6EF30F044
:1061E800F8EF30F0F9EF30F00D8C085008240E6EFF
:1061F80007AE01EF31F003EF31F004EF31F00E801C
:106208000E50D8B40AEF31F00CEF31F020EF31F036
:106218000E28D8A412EF31F014EF31F01CEF31F052
:10622800000E056E000E066E000E076E000E086E5C
:10623800078E086A28EF31F0000E056E000E066E14
:10624800000E076E000E086E0F500E5CD8B02FEFD0
:1062580031F031EF31F058EF31F00DAC36EF31F06D
:1062680038EF31F03AEF31F0800E0D1A0FC010F010
:106278000EC00FF010C00EF001C010F005C001F004
:1062880010C005F002C010F006C002F010C006F001
:1062980003C010F007C003F010C007F004C010F0EE
:1062A80008C004F010C008F0106A0F500EC009F0C2
:1062B8000A6A095E000E0A5A0ABE6CEF31F00A50EB
:1062C80009E11A0E095CD8A06CEF31F06EEF31F0DD
:1062D800A5EF31F00150021003100410D8A477EF95
:1062E80031F07AEF31F0010E7BEF31F0000E106ED5
:1062F800000E016E000E026E000E036E000E046E9C
:106308000EC00FF0AEEF31F010A08DEF31F08FEF2F
:1063180031F095EF31F0D89010300109106E97EFF9
:1063280031F0D890103201A09CEF31F09EEF31F09F
:106338009FEF31F0108E04340432033202320132FE
:106348000F2A0E500F5CD8A0ACEF31F0AEEF31F051
:1063580088EF31F00DBCB3EF31F0B5EF31F0F5EF68
:1063680031F00F50D8A4BBEF31F0BDEF31F0C7EFDB
:1063780031F0000E016E000E026E000E036E000E6C
:10638800046E14EF33F00550012606500222075020
:1063980003220850042204A0D4EF31F0D6EF31F0E4
:1063A80082EF32F010A0DBEF31F0DDEF31F0E3EFF8
:1063B80031F0D89010300109106EE5EF31F0D89027
:1063C800103201A0EAEF31F0ECEF31F0EDEF31F0EF
:1063D800108E043404320332023201320F2A82EF63
:1063E80032F00550015C065002580750035804501B
:1063F800800A096E0850800A0958D8B006EF32F0B2
:1064080008EF32F033EF32F00150055C096E0250AC
:1064180006580A6E035007580B6E045008580C6E45
:10642800FF0E0924016EFF0E0A20026EFF0E0B20DC
:10643800036EFF0E0C20046E800E0D1A106C1050A7
:10644800D8A429EF32F02BEF32F03BEF32F0010EF7
:106458000126000E0222032204223BEF32F00550EF
:10646800015E0650025A0750035A0850045A015058
:10647800021003100410D8A444EF32F046EF32F0B3
:106488007BEF32F01050D8A44CEF32F04EEF32F0E0
:106498007BEF32F0000E016E000E026E000E036EEE
:1064A800000E046E14EF33F0D8900136023603362E
:1064B800043610AE62EF32F064EF32F065EF32F07E
:1064C800018010A06AEF32F06CEF32F070EF32F01A
:1064D800D880103672EF32F0D89010360F50D8B4FA
:1064E80078EF32F07AEF32F07BEF32F00F0603AE3E
:1064F80080EF32F082EF32F058EF32F00E6A10AED1
:1065080088EF32F08AEF32F0A2EF32F010C009F0D3
:106518007F0E0916D8B493EF32F095EF32F099EF69
:1065280032F0010E0E6EA2EF32F001A09EEF32F0B3
:10653800A0EF32F0A2EF32F095EF32F00E50D8B45F
:10654800A8EF32F0AAEF32F0D5EF32F0010E0126B3
:10655800000E02220322042204A0B5EF32F0B7EFA6
:1065680032F0D5EF32F001C009F002C00AF003C0E2
:106578000BF004C00CF00C340C320B320A32093226
:1065880009C001F00AC002F00BC003F00CC004F00F
:106598000F28D8B4D2EF32F0D4EF32F0D5EF32F082
:1065A8000F2A0F28D8B4DBEF32F0DDEF32F0E5EF39
:1065B80032F00F50D8A4E3EF32F0E5EF32F0F6EF07
:1065C80032F0000E016E000E026E000E036E000E19
:1065D800046E0F50D8A4F3EF32F0F5EF32F0F6EF77
:1065E80032F00D6A0FA0FBEF32F0FDEF32F000EF52
:1065F80033F0038E01EF33F0039ED8900F30046E12
:106608000DAE09EF33F00BEF33F00CEF33F0048EDF
:1066180001C001F002C002F003C003F004C004F09E
:10662800120001011151800B1A6F11511125206FB1
:1066380010AF21EF33F023EF33F024EF33F0208154
:106648002051D8B42AEF33F02CEF33F03FEF33F07A
:106658002029D8A432EF33F034EF33F03CEF33F095
:10666800000E0E6F000E0F6F000E106F000E116FF0
:10667800108F47EF33F0000E0E6F000E0F6F000EF5
:10668800106F000E116F1551800B1A1B155115252F
:106698001B6F14AF52EF33F054EF33F055EF33F074
:1066A8001B811B51D8B45BEF33F05DEF33F070EF13
:1066B80033F01B29D8A463EF33F065EF33F06DEFA7
:1066C80033F0000E126F000E136F000E146F000EE1
:1066D800156F148F78EF33F0000E126F000E136FE2
:1066E800000E146F000E156F1B51D8B47EEF33F0F7
:1066F80080EF33F088EF33F02051D8A486EF33F0E1
:1067080088EF33F092EF33F0000E0E6F000E0F6F2C
:10671800000E106F000E116F3AEF35F014510E0392
:106728006F00CCFF25F16F00D0FF26F125511C6FBB
:106738001D6B1E6B1F6B2651216F226B236B246B05
:1067480013510F036F00CCFF25F16F00D0FF26F126
:1067580025511C27000E1D231E231F2326512127E8
:10676800000E222323232423125110036F00CCFF91
:1067780025F16F00D0FF26F125511C27000E1D239F
:106788001E231F2326512127000E222323232423DF
:106798001EC11FF11DC11EF11CC11DF11C6B125140
:1067A8000F036F00CCFF25F16F00D0FF26F12551B4
:1067B8001C2726511D23000E1E23000E1F231351D4
:1067C8000E036F00CCFF25F16F00D0FF26F1255195
:1067D8001C2726511D23000E1E23000E1F231EC139
:1067E8001FF11DC11EF11CC11DF11C6B12510E03BE
:1067F8006F00CCFF25F16F00D0FF26F125511C2733
:1068080026511D23000E1E23000E1F2314510F03B3
:106818006F00CCFF25F16F00D0FF26F1255121270D
:1068280026512223000E2323000E24231351100384
:106838006F00CCFF25F16F00D0FF26F125512127ED
:1068480026512223000E2323000E24231451100363
:106858006F00CCFF25F16F00D0FF26F12551166F90
:106868002651176F186B196B18C119F117C118F158
:1068780016C117F1166B16512127175122231851EB
:106888002323195124231CC116F11DC117F11EC160
:1068980018F11FC119F1190E57EF34F0D8901933B8
:1068A800183317331633E82E52EF34F016512127D8
:1068B8001751222318512323195124231EC11FF1D4
:1068C8001DC11EF11CC11DF11C6B1B5120C116F10D
:1068D800176B1627000E1723820E1625256FFF0E3D
:1068E8001721266F8DEF34F0D890213722372337C0
:1068F80024371FAF82EF34F084EF34F085EF34F0A3
:106908002181D8901C371D371E371F372507D8A07F
:10691800260723AF92EF34F094EF34F078EF34F099
:106928001B6B1FAF9AEF34F09CEF34F0C0EF34F0DC
:10693800FF0E1C15166FFF0E1D15176FFF0E1E1587
:10694800186F7F0E1F15196F16511711181119118D
:10695800D8B4B1EF34F0B3EF34F0B7EF34F0010E40
:106968001B6FC0EF34F021A1BCEF34F0BEEF34F060
:10697800C0EF34F0B3EF34F01B51D8B4C6EF34F0A5
:10698800C8EF34F0ECEF34F0010E2127000E22237B
:106998002323242324A1D3EF34F0D5EF34F0ECEFF4
:1069A80034F021C116F122C117F123C118F124C115
:1069B80019F11935193318331733163316C121F164
:1069C80017C122F118C123F119C124F1254B262B37
:1069D80026BFF7EF34F0265108E12529D8A0F7EFB4
:1069E80034F0F9EF34F003EF35F0000E216F000EAC
:1069F800226F800E236F7F0E246F30EF35F026BF95
:106A080010EF35F0265106E12505D8B00EEF35F028
:106A180010EF35F01BEF35F0000E216F000E226FDE
:106A2800000E236F000E246F1A6B30EF35F025C16E
:106A380020F1FF0E2117FF0E22177F0E2317000EDD
:106A4800241720A12AEF35F02CEF35F02DEF35F083
:106A5800238FD8902031246F1A51241321C10EF1AD
:106A680022C10FF123C110F124C111F112001250FB
:106A7800800B1B6E12501224216E11AE46EF35F0BA
:106A880048EF35F049EF35F021802150D8B44FEF69
:106A980035F051EF35F064EF35F02128D8A457EFE1
:106AA80035F059EF35F061EF35F0000E0F6E000E3E
:106AB800106E000E116E000E126E118E6CEF35F016
:106AC800000E0F6E000E106E000E116E000E126E8C
:106AD8001650800B1B1A165016241C6E15AE77EF35
:106AE80035F079EF35F07AEF35F01C801C50D8B4CA
:106AF80080EF35F082EF35F095EF35F01C28D8A4FB
:106B080088EF35F08AEF35F092EF35F0000E136E0E
:106B1800000E146E000E156E000E166E158E9DEF8B
:106B280035F0000E136E000E146E000E156E000E7A
:106B3800166E1C50D8B4A3EF35F0A5EF35F0ADEFC5
:106B480035F02150D8A4ABEF35F0ADEF35F0B7EF05
:106B580035F0000E0F6E000E106E000E116E000E56
:106B6800126E5FEF37F015500F026F00CCFF26F062
:106B78006F00D0FF27F026501D6E1E6A1F6A206A1C
:106B88002750226E236A246A256A145010026F0067
:106B9800CCFF26F06F00D0FF27F026501D26000EF0
:106BA8001E221F22202227502226000E23222422C2
:106BB8002522135011026F00CCFF26F06F00D0FF82
:106BC80027F026501D26000E1E221F2220222750A5
:106BD8002226000E2322242225221FC020F01EC0B8
:106BE8001FF01DC01EF01D6A135010026F00CCFF6D
:106BF80026F06F00D0FF27F026501D2627501E22B2
:106C0800000E1F22000E202214500F026F00CCFF2E
:106C180026F06F00D0FF27F026501D2627501E2291
:106C2800000E1F22000E20221FC020F01EC01FF0E1
:106C38001DC01EF01D6A13500F026F00CCFF26F016
:106C48006F00D0FF27F026501D2627501E22000E69
:106C58001F22000E2022155010026F00CCFF26F0D4
:106C68006F00D0FF27F02650222627502322000E3F
:106C78002422000E2522145011026F00CCFF26F0AA
:106C88006F00D0FF27F02650222627502322000E1F
:106C98002422000E2522155011026F00CCFF26F089
:106CA8006F00D0FF27F02650176E2750186E196A0C
:106CB8001A6A19C01AF018C019F017C018F0176A24
:106CC8001750222618502322195024221A50252200
:106CD8001DC017F01EC018F01FC019F020C01AF010
:106CE800190E7CEF36F0D8901A3219321832173252
:106CF800E82E77EF36F01750222618502322195025
:106D080024221A5025221FC020F01EC01FF01DC0CB
:106D18001EF01D6A1C5021C017F0186A1726000EB5
:106D28001822820E1724266EFF0E1820276EB2EF47
:106D380036F0D890223623362436253620AEA7EFF3
:106D480036F0A9EF36F0AAEF36F02280D8901D363B
:106D58001E361F3620362606D8A0270624AEB7EFE3
:106D680036F0B9EF36F09DEF36F01C6A20AEBFEF73
:106D780036F0C1EF36F0E5EF36F0FF0E1D14176E52
:106D8800FF0E1E14186EFF0E1F14196E7F0E2014AE
:106D98001A6E1750181019101A10D8B4D6EF36F00A
:106DA800D8EF36F0DCEF36F0010E1C6EE5EF36F06A
:106DB80022A0E1EF36F0E3EF36F0E5EF36F0D8EF5A
:106DC80036F01C50D8B4EBEF36F0EDEF36F011EF9B
:106DD80037F0010E2226000E23222422252225A088
:106DE800F8EF36F0FAEF36F011EF37F022C017F06F
:106DF80023C018F024C019F025C01AF01A341A322A
:106E080019321832173217C022F018C023F019C0EF
:106E180024F01AC025F0264A272A27BE1CEF37F08F
:106E2800275008E12628D8A01CEF37F01EEF37F0CE
:106E380028EF37F0000E226E000E236E800E246EAF
:106E48007F0E256E55EF37F027BE35EF37F0275008
:106E580006E12604D8B033EF37F035EF37F040EFCE
:106E680037F0000E226E000E236E000E246E000E08
:106E7800256E1B6A55EF37F026C021F0FF0E22164B
:106E8800FF0E23167F0E2416000E251621A04FEFA5
:106E980037F051EF37F052EF37F0248ED890213089
:106EA800256E1B50251222C00FF023C010F024C0FD
:106EB80011F025C012F0120001013A51800B476F02
:106EC8003A513A254E6F39AF6CEF37F06EEF37F025
:106ED8006FEF37F04E814E51D8B475EF37F077EF3A
:106EE80037F08BEF37F04E29D8A47DEF37F07FEFDE
:106EF80037F087EF37F0000E376F000E386F000E4F
:106F0800396F000E3A6F398F3A6B93EF37F0000EF6
:106F1800376F000E386F000E396F000E3A6F3E5112
:106F2800800B471B3E513E254F6F3DAF9EEF37F01C
:106F3800A0EF37F0A1EF37F04F814F51D8B4A7EF4A
:106F480037F0A9EF37F0BDEF37F04F29D8A4AFEFEE
:106F580037F0B1EF37F0B9EF37F0000E3B6F000EA6
:106F68003C6F000E3D6F000E3E6F3D8F3E6BC5EFD0
:106F780037F0000E3B6F000E3C6F000E3D6F000EA9
:106F88003E6F3B513C113D113E11D8A4CEEF37F076
:106F9800D0EF37F0E8EF37F0000E376F000E386F9C
:106FA800000E396F000E3A6F800E39137F0E3A13B8
:106FB80047513A1337C137F138C138F139C139F17E
:106FC8003AC13AF128EF39F04E51D8A4EEEF37F034
:106FD800F0EF37F0FAEF37F0000E376F000E386F2A
:106FE800000E396F000E3A6F28EF39F04F514EC13D
:106FF8003FF1406B3F5F000E405B7F0E3F25486FBF
:10700800000E4021496F37C143F138C144F139C1FD
:1070180045F13AC146F1000E376F000E386F000E89
:10702800396F000E3A6F000E4A6F000E4B6F000E5C
:107038004C6F000E4D6F4F6B5AEF38F04F51D8B46C
:1070480028EF38F02AEF38F041EF38F0D89043377E
:10705800443745374637D8903737383739373A378E
:107068004DAF39EF38F03BEF38F03CEF38F037816F
:10707800D8904A374B374C374D373B51435D3C51DD
:1070880044593D5145593E514659D8A04EEF38F024
:1070980050EF38F059EF38F04D8D3B51435F3C517C
:1070A800445B3D51455B3E51465B4F2B190E4F6586
:1070B80060EF38F062EF38F022EF38F043514411B6
:1070C80045114611D8B46BEF38F06DEF38F085EF05
:1070D80038F04A8185EF38F0D89037373837393764
:1070E8003A374DAF7AEF38F07CEF38F07DEF38F073
:1070F8003781D8904A374B374C374D374807D8A097
:10710800490739AF8AEF38F08CEF38F070EF38F074
:107118004F6B4DAF92EF38F094EF38F0B8EF38F08E
:10712800FF0E4A153F6FFF0E4B15406FFF0E4C15B3
:10713800416F7F0E4D15426F3F5140114111421171
:10714800D8B4A9EF38F0ABEF38F0AFEF38F0010E54
:107158004F6FB8EF38F037A1B4EF38F0B6EF38F02A
:10716800B8EF38F0ABEF38F04F51D8B4BEEF38F085
:10717800C0EF38F0E4EF38F0010E3727000E38235F
:1071880039233A233AA1CBEF38F0CDEF38F0E4EFCA
:1071980038F037C13FF138C140F139C141F13AC146
:1071A80042F142354233413340333F333FC137F137
:1071B80040C138F141C139F142C13AF1484B492B3C
:1071C80049BFEFEF38F0495108E14829D8A0EFEF5F
:1071D80038F0F1EF38F0FCEF38F0000E496F4869ED
:1071E800000E376F000E386F000E396F000E3A6FC1
:1071F80049BF09EF39F0495106E14805D8B007EF12
:1072080039F009EF39F016EF39F0000E496F000E2A
:10721800486F000E376F000E386F000E396F000E82
:107228003A6F476B48C14EF14EA11DEF39F01FEF81
:1072380039F022EF39F0398F23EF39F0399FD890A0
:107248004E313A6FDCEF37F012000450800B116EAC
:1072580004500424186E03AE34EF39F036EF39F0D9
:1072680037EF39F018801850D8B43DEF39F03FEFB8
:1072780039F053EF39F01828D8A445EF39F047EF23
:1072880039F04FEF39F0000E016E000E026E000E5D
:10729800036E000E046E038E046A5BEF39F0000E75
:1072A800016E000E026E000E036E000E046E085092
:1072B800800B111A08500824196E07AE66EF39F0D2
:1072C80068EF39F069EF39F019801950D8B46FEFC9
:1072D80039F071EF39F085EF39F01928D8A477EF34
:1072E80039F079EF39F081EF39F0000E056E000EB4
:1072F800066E000E076E000E086E078E086A8DEF88
:1073080039F0000E056E000E066E000E076E000EB8
:10731800086E0550061007100810D8A496EF39F02B
:1073280098EF39F0B0EF39F0000E016E000E026EE2
:10733800000E036E000E046E800E03127F0E041200
:107348001150041201C001F002C002F003C003F0A2
:1073580004C004F0F0EF3AF01850D8A4B6EF39F0B2
:10736800B8EF39F0C2EF39F0000E016E000E026E70
:10737800000E036E000E046EF0EF3AF0195018C0BC
:1073880009F00A6A095E000E0A5A7F0E0924126E75
:10739800000E0A20136E01C00DF002C00EF003C0EB
:1073A8000FF004C010F0000E016E000E026E000E09
:1073B800036E000E046E000E146E000E156E000EA5
:1073C800166E000E176E196A22EF3AF01950D8B4EB
:1073D800F0EF39F0F2EF39F009EF3AF0D8900D36C6
:1073E8000E360F361036D89001360236033604367C
:1073F80017AE01EF3AF003EF3AF004EF3AF00180EC
:10740800D890143615361636173605500D5C0650CA
:107418000E5807500F5808501058D8A016EF3AF0D9
:1074280018EF3AF021EF3AF0178C05500D5E065030
:107438000E5A07500F5A0850105A192A190E196473
:1074480028EF3AF02AEF3AF0EAEF39F00D500E1033
:107458000F101010D8B433EF3AF035EF3AF04DEF83
:107468003AF014804DEF3AF0D890013602360336E0
:10747800043617AE42EF3AF044EF3AF045EF3AF0EF
:107488000180D89014361536163617361206D8A04D
:10749800130603AE52EF3AF054EF3AF038EF3AF0F1
:1074A800196A17AE5AEF3AF05CEF3AF080EF3AF00B
:1074B800FF0E1414096EFF0E15140A6EFF0E161433
:1074C8000B6E7F0E17140C6E09500A100B100C105F
:1074D800D8B471EF3AF073EF3AF077EF3AF0010E63
:1074E800196E80EF3AF001A07CEF3AF07EEF3AF0A7
:1074F80080EF3AF073EF3AF01950D8B486EF3AF0CB
:1075080088EF3AF0ACEF3AF0010E0126000E0222A5
:107518000322042204A093EF3AF095EF3AF0ACEF7F
:107528003AF001C009F002C00AF003C00BF004C031
:107538000CF00C340C320B320A32093209C001F05B
:107548000AC002F00BC003F00CC004F0124A132A60
:1075580013BEB7EF3AF0135008E11228D8A0B7EFDE
:107568003AF0B9EF3AF0C4EF3AF0000E136E126831
:10757800000E016E000E026E000E036E000E046E09
:1075880013BED1EF3AF0135006E11204D8B0CFEF92
:107598003AF0D1EF3AF0DEEF3AF0000E136E000E3B
:1075A800126E000E016E000E026E000E036E000ECB
:1075B800046E116A12C018F018A0E5EF3AF0E7EF70
:1075C8003AF0EAEF3AF0038EEBEF3AF0039ED890E8
:1075D8001830046EA4EF39F0120060006FF6D9FF7E
:1075E800600073F6DAFF6F007FFFF6FF200EF76E7C
:1075F800000EF86E0800F550250AD8A406EF3BF0F7
:1076080008EF3BF016EF3CF060006FF6D9FF600022
:1076180073F6DAFFDF2A000E0101A06F000E9F6FDC
:107628009FC15BF0A169A26960006FF6D9FF600095
:1076380073F6DAFF6F007FFFF6FF200EF76E000E7D
:10764800F86E0800F5502E0AD8A42DEF3BF02FEF66
:107658003BF044EF3BF060006FF6D9FF600073F633
:10766800DAFFDF2A9BC100F19CC101F19DC102F143
:107678009EC103F1E0EC45F000C1A1F101C1A2F106
:1076880060006FF6D9FF600073F6DAFFDF50020181
:10769800076F60001FF8F6FF200EF76E000EF86EF9
:1076A80008006F00D4FF06F264EF3BF0072B73EF7E
:1076B8003BF06C0E066F73EF3BF0066B73EF3BF01D
:1076C80006514C0AD8B45AEF3BF02A0AD8B45DEFF9
:1076D8003BF00A0AD8B45AEF3BF061EF3BF0600088
:1076E8001FF8F6FF200EF76E000EF86E0800F55032
:1076F800660AD8A482EF3BF084EF3BF00DEF3CF034
:10770800CEEF3BF0600077F6D9FF60007BF6DAFF3A
:107718006F007CFF00F2040EDE266F007CFF01F292
:10772800000EDD22600003F8D9FF600007F8DAFFD9
:107738006F0078FF02F26F0078FF03F26F0078FFA6
:1077480004F26F0078FF05F2D9EF3BF0600077F69E
:10775800D9FF60007BF6DAFF6F007CFF00F2040EB1
:10776800DE266F007CFF01F2000EDD22600003F8C8
:10777800D9FF600007F8DAFF6F0078FF02F26F00A8
:1077880078FF03F26F0078FF04F26F0078FF05F2CC
:10779800D9EF3BF006514C0AD8B4AAEF3BF0200AC7
:1077A800D8B486EF3BF0D9EF3BF0072960006FF6BD
:1077B800D9FF600073F6DAFFDF6EFEEF3BF099C188
:1077C80064F19AC165F102C266F103C267F104C2AD
:1077D80068F105C269F160001FF8F6FF200EF76E28
:1077E800000EF86E08006F00D4FF6AF159EC20F023
:1077F80030EF3CF060001FF8F6FF200EF76E000E29
:10780800F86E0800F550660AD8B4E3EF3BF00DEFC8
:107818003CF060006FF6D9FF600073F6DAFFDF2AEC
:1078280030EF3CF060006FF6D9FF600073F6DAFFC6
:107838006F007FFFF6FF200EF76E000EF86E08004F
:10784800F5500101006F016B99C102F19AC103F172
:107858003DEC47F00DEF3CF012006000FFF0D9FF5F
:10786800600003F1DAFF6F007FFFF6FF200EF76E6E
:10787800000EF86E0800F550250AD8A446EF3CF033
:1078880048EF3CF055EF3DF06000FFF0D9FF600095
:1078980003F1DAFFDF2A000E0101A06F000E9F6FCF
:1078A8009FC15BF0A169A2696000FFF0D9FF600089
:1078B80003F1DAFF6F007FFFF6FF200EF76E000E70
:1078C800F86E0800F5502E0AD8A46DEF3CF06FEF63
:1078D8003CF084EF3CF06000FFF0D9FF600003F15A
:1078E800DAFFDF2A3FC001F040C002F041C003F0D8
:1078F80042C004F057EC46F001C0A1F102C0A2F169
:107908006000FFF0D9FF600003F1DAFFDF504A6E34
:1079180060002BF1F6FF200EF76E000EF86E0800DF
:107928006F00D4FF49F0A3EF3CF04A2AB2EF3CF0D5
:107938006C0E496EB2EF3CF0496AB2EF3CF0495028
:107948004C0AD8B499EF3CF02A0AD8B49CEF3CF022
:107958000A0AD8B499EF3CF0A0EF3CF060002BF194
:10796800F6FF200EF76E000EF86E0800F550660A56
:10797800D8A4C1EF3CF0C3EF3CF04CEF3DF00DEF65
:107988003DF0600007F1D9FF60000BF1DAFF6F00EE
:107998007CFF43F0040EDE266F007CFF44F0000EEF
:1079A800DD2260000FF1D9FF600013F1DAFF6F00EC
:1079B80078FF45F06F0078FF46F06F0078FF47F0DA
:1079C8006F0078FF48F018EF3DF0600007F1D9FF2D
:1079D80060000BF1DAFF6F007CFF43F0040EDE2637
:1079E8006F007CFF44F0000EDD2260000FF1D9FF2C
:1079F800600013F1DAFF6F0078FF45F06F0078FF41
:107A080046F06F0078FF47F06F0078FF48F018EFF6
:107A18003DF049504C0AD8B4E9EF3CF0200AD8B4FC
:107A2800C5EF3CF018EF3DF04A286000FFF0D9FFA1
:107A3800600003F1DAFFDF6E3DEF3DF03DC034F04A
:107A48003EC035F045C036F046C037F047C038F084
:107A580048C039F060002BF1F6FF200EF76E000EDB
:107A6800F86E08006F00D4FF3AF054EC25F06EEF82
:107A78003DF060002BF1F6FF200EF76E000EF86E59
:107A88000800F550660AD8B422EF3DF04CEF3DF0FF
:107A98006000FFF0D9FF600003F1DAFFDF2A6EEF24
:107AA8003DF06000FFF0D9FF600003F1DAFF6F00DE
:107AB8007FFFF6FF200EF76E000EF86E0800F550F7
:107AC800016E026A3DC003F03EC004F017EC48F0B6
:107AD8004CEF3DF01200A0C060F1A1C061F1A2C05E
:107AE80062F1A3C063F150C160F151C161F152C1AB
:107AF80062F153C163F1810E0101546FFF0E556F9E
:107B080060C156F161C157F162C158F163C159F1C1
:107B1800180E94EF3DF0D8905933583357335633F5
:107B2800E82E8FEF3DF0565154255E6F000E55211B
:107B38005F6F5FBFA9EF3DF05F5109E1170E5E5D12
:107B4800D8A0A9EF3DF0ABEF3DF0B5EF3DF050C147
:107B580050F151C151F152C152F153C153F179EF72
:107B68003EF05FBFBAEF3DF0BCEF3DF02DEF3EF0C9
:107B78005EC154F1FF0E556FFF0E566F7F0E576FA3
:107B8800000E586F5467CBEF3DF0D3EF3DF05835FA
:107B98005833573356335533542FC6EF3DF055C13C
:107BA8005AF156C15BF157C15CF158C15DF1010151
:107BB8005A516015546F5B516115556F5C516215D0
:107BC800566F5D516315576F545155115611571122
:107BD800D8A4F1EF3DF0F3EF3DF0F5EF3DF0ABEF5A
:107BE8003DF060C154F161C155F162C156F163C104
:107BF80057F1200E05EF3EF0D890573356335533E2
:107C08005433E82E00EF3EF05451551156115711D8
:107C1800D8B411EF3EF013EF3EF01BEF3EF05A518F
:107C280060275B5161235C5162235D5163235A1DB8
:107C3800546F5B1D556F5C1D566F5D1D576F54511A
:107C4800601755516117565162175751631771EFF5
:107C58003EF060C154F161C155F162C156F163C192
:107C680057F1200E3DEF3EF0D89057335633553339
:107C78005433E82E38EF3EF0545155115611571130
:107C8800D8A449EF3EF04BEF3EF055EF3EF0000E22
:107C9800606F000E616F000E626F000E636F71EF10
:107CA8003EF0D8906035546F6135556F6235566F28
:107CB8006335576F5451551156115711D8B467EFA2
:107CC8003EF069EF3EF071EF3EF0000E606F000E7F
:107CD800616F800E626FBF0E636F60C150F161C14A
:107CE80051F162C152F163C153F11200A0C02AF0F0
:107CF800A1C02BF0A2C02CF0A3C02DF01AC02AF00E
:107D08001BC02BF01CC02CF01DC02DF0810E1E6E68
:107D1800FF0E1F6E2AC020F02BC021F02CC022F0CD
:107D28002DC023F0180E9EEF3EF0D8902332223259
:107D380021322032E82E99EF3EF020501E24286E82
:107D4800000E1F20296E29BEB3EF3EF0295009E12D
:107D5800170E285CD8A0B3EF3EF0B5EF3EF0BFEFAA
:107D68003EF01AC01AF01BC01BF01CC01CF01DC04E
:107D78001DF082EF3FF029BEC4EF3EF0C6EF3EF0A3
:107D880036EF3FF028C01EF0FF0E1F6EFF0E206E6C
:107D98007F0E216E000E226E1E66D5EF3EF0DDEFDF
:107DA8003EF022342232213220321F321E2ED0EFF2
:107DB8003EF01FC024F020C025F021C026F022C0CC
:107DC80027F024502A141E6E25502B141F6E26509F
:107DD8002C14206E27502D14216E1E501F102010B9
:107DE8002110D8A4FAEF3EF0FCEF3EF0FEEF3EF093
:107DF800B5EF3EF02AC01EF02BC01FF02CC020F0BB
:107E08002DC021F0200E0EEF3FF0D8902132203205
:107E18001F321E32E82E09EF3FF01E501F102010AF
:107E28002110D8B41AEF3FF01CEF3FF024EF3FF0D9
:107E380024502A2625502B2226502C2227502D222A
:107E4800241C1E6E251C1F6E261C206E271C216EEE
:107E58001E502A161F502B1620502C1621502D1656
:107E68007AEF3FF02AC01EF02BC01FF02CC020F084
:107E78002DC021F0200E46EF3FF0D890213220325D
:107E88001F321E32E82E41EF3FF01E501F10201007
:107E98002110D8A452EF3FF054EF3FF05EEF3FF0CF
:107EA800000E2A6E000E2B6E000E2C6E000E2D6E2C
:107EB8007AEF3FF0D8902A341E6E2B341F6E2C3484
:107EC800206E2D34216E1E501F1020102110D8B4A2
:107ED80070EF3FF072EF3FF07AEF3FF0000E2A6E3E
:107EE800000E2B6E800E2C6EBF0E2D6E2AC01AF05F
:107EF8002BC01BF02CC01CF02DC01DF0120001017E
:107F0800086F01010851D8B48CEF3FF08EEF3FF0B5
:107F1800B0EF3FF003BF95EF3FF093EF3FF0B0EFC6
:107F28003FF000C104F101C105F102C106F103C12E
:107F380007F1041F051F061F071F042B000E05234A
:107F48000623072304C10AF105C10BF106C10CF190
:107F580007C10DF1B8EF3FF000C10AF101C10BF103
:107F680002C10CF103C10DF10051011102110311FD
:107F7800D8A4C1EF3FF0C3EF3FF0CDEF3FF0000EC4
:107F8800006F000E016F000E026F000E036F5EEFB0
:107F980040F0960E096FD7EF3FF0092BD8900D33BC
:107FA8000C330B330A33000E0A15046F000E0B1541
:107FB800056F000E0C15066FFE0E0D15076F0451A8
:107FC800051106110711D8A4ECEF3FF0EEEF3FF0D2
:107FD800D1EF3FF0FCEF3FF0092B010E0A27000E0E
:107FE8000B230C230D23D8900D330C330B330A339A
:107FF800000E0A15046F000E0B15056F000E0C1508
:10800800066FFF0E0D15076F0451051106110711B4
:10801800D8A411EF40F013EF40F0F0EF3FF01BEF62
:1080280040F00907D8900A370B370C370D370CBFCB
:1080380020EF40F022EF40F02AEF40F0020E0961F5
:1080480028EF40F02AEF40F015EF40F009B12FEF8C
:1080580040F031EF40F032EF40F00C9FD8900933F8
:1080680009C104F1056B066B076B04C107F1066BC8
:10807800056B046B04510A1305510B1306510C13BD
:1080880007510D130851D8B44CEF40F04EEF40F0B3
:1080980056EF40F003BF55EF40F053EF40F056EF76
:1080A80040F00D8F0AC100F10BC101F10CC102F1C2
:1080B8000DC103F11200096E0950D8B466EF40F003
:1080C80068EF40F08AEF40F004BE6FEF40F06DEFCC
:1080D80040F08AEF40F001C005F002C006F003C08E
:1080E80007F004C008F0051E061E071E081E052A14
:1080F800000E06220722082205C00BF006C00CF06D
:1081080007C00DF008C00EF092EF40F001C00BF070
:1081180002C00CF003C00DF004C00EF001500210B4
:1081280003100410D8A49BEF40F09DEF40F0A7EF98
:1081380040F0000E016E000E026E000E036E000E7F
:10814800046E38EF41F0960E0A6EB1EF40F00A2A3D
:10815800D8900E320D320C320B32000E0B14056E15
:10816800000E0C14066E000E0D14076EFE0E0E1493
:10817800086E0550061007100810D8A4C6EF40F086
:10818800C8EF40F0ABEF40F0D6EF40F00A2A010EFE
:108198000B26000E0C220D220E22D8900E320D3224
:1081A8000C320B32000E0B14056E000E0C14066E0A
:1081B800000E0D14076EFF0E0E14086E0550061003
:1081C80007100810D8A4EBEF40F0EDEF40F0CAEF2D
:1081D80040F0F5EF40F00A06D8900B360C360D3615
:1081E8000E360DBEFAEF40F0FCEF40F004EF41F020
:1081F800020E0A6002EF41F004EF41F0EFEF40F0A9
:108208000AB009EF41F00BEF41F00CEF41F00D9E81
:10821800D8900A320AC005F0066A076A086A05C0DB
:1082280008F0076A066A056A05500B1206500C1218
:1082380007500D1208500E120950D8B426EF41F01D
:1082480028EF41F030EF41F004BE2FEF41F02DEF61
:1082580041F030EF41F00E8E0BC001F00CC002F07F
:108268000DC003F00EC004F01200020E3E01F16FC3
:10827800070E02014E6F7D0EE82EFED74E2FFCD75B
:108288003E01F881F8B14BEF41F04DEF41F046EF78
:1082980041F0EF516F00C0FB4EF202014F6B4EC22E
:1082A8004FF24E6B4E110101A36F02014F510101B4
:1082B800A46F330E126F330E136F530E146F3A0EF2
:1082C800156FA3C100F1A4C101F1000E01BFFF0E9B
:1082D800026F036F010E83EC3FF000C10EF101C184
:1082E8000FF102C110F103C111F115EC33F00EC109
:1082F80050F20FC151F210C152F211C153F250C2E3
:1083080050F151C251F152C252F153C253F14DECE6
:108318002AF050C154F251C155F252C156F253C11C
:1083280057F254C20EF155C20FF156C210F157C29E
:1083380011F1000E0101126F000E136FA00E146FE1
:10834800410E156F15EC33F00EC1B0F00FC1B1F04E
:1083580010C1B2F011C1B3F0C00E02010E6F0F6B65
:10836800700E106FB0C011F2B1C012F2B2C013F2A9
:10837800B3C014F2C7EC4CF0C00E0101006F016BE2
:10838800690E026FFBEC4AF0000E0101096F410E05
:108398000A6F0A51D8A4200E0B6F010E0DEC4EF097
:1083A800000E0101096FC00E0A6F0B6B020E0DEC77
:1083B8004EF01200010102350335096F0951D8A4A6
:1083C800E8EF41F0EAEF41F0F4EF41F0000E006F02
:1083D800000E016F000E026F000E036F61EF42F096
:1083E80000C104F101C105F102C106F103C107F1A1
:1083F800200E04EF42F0D8900733063305330433D8
:10840800E82EFFEF41F00451086F028FFF0E0017AE
:10841800FF0E0117FF0E0217000E0317960E095FD5
:1084280009BF1BEF42F019EF42F031EF42F009515A
:10843800800A970FD8B023EF42F025EF42F027EFDC
:1084480042F0EAEF41F0D8900333023301330033AE
:10845800093F27EF42F049EF42F01F0E096537EF59
:1084680042F039EF42F041EF42F0EAEF41F0D890A4
:10847800003701370237033709070951D8A447EFF6
:1084880042F049EF42F03BEF42F00851D8B44FEFC9
:1084980042F051EF42F059EF42F0031F021F011F53
:1084A800006D000E01230223032300C100F101C166
:1084B80001F102C102F103C103F11200000E010132
:1084C80027152F6F000E2815306F800E2915316F74
:1084D8007F0E2A15326F2F51301131113211D8A465
:1084E80078EF42F07AEF42F082EF42F0000E276F09
:1084F800000E286F000E296F000E2A6F000E2B1534
:108508002F6F000E2C15306F800E2D15316F7F0EDA
:108518002E15326F2F51301131113211D8A497EF27
:1085280042F099EF42F0A1EF42F0000E2B6F000EDF
:108538002C6F000E2D6F000E2E6F2AAFA6EF42F0A3
:10854800A8EF42F0B1EF42F0276D281FD8B0282BD2
:10855800291FD8B0292B800E2A572EAFB6EF42F02C
:10856800B8EF42F0C1EF42F02B6D2C1FD8B02C2B86
:108578002D1FD8B02D2B800E2E57000E271B000E56
:10858800281B000E291B800E2A1B000E2B1B000E19
:108598002C1B000E2D1B800E2E1B2B51275D2C51E2
:1085A80028592D5129592E512A59D8B0DEEF42F0B9
:1085B800E0EF42F0E3EF42F0D890E4EF42F0D880E9
:1085C8001200033404340A6E0A50D8A4EEEF42F0C5
:1085D800F0EF42F0FAEF42F0000E016E000E026E6C
:1085E800000E036E000E046E67EF43F001C005F045
:1085F80002C006F003C007F004C008F0200E0AEF1E
:1086080043F0D8900832073206320532E82E05EFDB
:1086180043F00550096E038EFF0E0116FF0E021679
:10862800FF0E0316000E0416960E0A5E0ABE21EF10
:1086380043F01FEF43F037EF43F00A50800A970FDB
:10864800D8B029EF43F02BEF43F02DEF43F0F0EFD4
:1086580042F0D89004320332023201320A3E2DEF42
:1086680043F04FEF43F01F0E0A643DEF43F03FEF36
:1086780043F047EF43F0F0EF42F0D890013602366E
:10868800033604360A060A50D8A44DEF43F04FEFDC
:1086980043F041EF43F00950D8B455EF43F057EF9A
:1086A80043F05FEF43F0041E031E021E016C000E30
:1086B80002220322042201C001F002C002F003C01A
:1086C80003F004C004F01200000E2814306E000EEF
:1086D8002914316E800E2A14326E7F0E2B14336EDD
:1086E8003050311032103310D8A47DEF43F07FEFB3
:1086F80043F087EF43F0000E286E000E296E000E3F
:108708002A6E000E2B6E000E2C14306E000E2D14E7
:10871800316E800E2E14326E7F0E2F14336E305051
:10872800311032103310D8A49CEF43F09EEF43F081
:10873800A6EF43F0000E2C6E000E2D6E000E2E6E6E
:10874800000E2F6E2BAEABEF43F0ADEF43F0B6EF5C
:1087580043F0286C291ED8B0292A2A1ED8B02A2A04
:10876800800E2B562FAEBBEF43F0BDEF43F0C6EFA4
:1087780043F02C6C2D1ED8B02D2A2E1ED8B02E2AD0
:10878800800E2F56000E281A000E291A000E2A1ADB
:10879800800E2B1A000E2C1A000E2D1A000E2E1AFF
:1087A800800E2F1A2C50285C2D5029582E502A58EC
:1087B8002F502B58D8B0E3EF43F0E5EF43F0E8EF44
:1087C80043F0D890E9EF43F0D8801200A4C00AF132
:1087D800A5C00BF1A6C00CF1A7C00DF100C10AF1AC
:1087E80001C10BF102C10CF103C10DF10AC104F181
:1087F8000BC105F10CC106F10DC107F1180E0BEF05
:1088080044F00101D8900733063305330433E82ECA
:1088180005EF44F00451086F096B08510911D8A4F9
:1088280018EF44F01AEF44F03AEF44F0D8900A35C4
:10883800046F0B35056F0C35066F0D35076F045146
:10884800051106110711D8A42CEF44F02EEF44F0BF
:1088580034EF44F0000E016F020E006F69EF44F030
:10886800000E016F030E006F69EF44F0082909112B
:10887800D8A441EF44F043EF44F065EF44F00AC157
:1088880004F10BC105F10CC106F10DC107F1090E88
:10889800D8900437053706370737E82E4CEF44F0F1
:1088A8000451051106110711D8B45DEF44F060EFCB
:1088B80044F0010E61EF44F0000E006F016B69EFA8
:1088C80044F0000E016F040E006F1200A4C00BF0FC
:1088D800A5C00CF0A6C00DF0A7C00EF001C00BF0AB
:1088E80002C00CF003C00DF004C00EF00BC005F080
:1088F8000CC006F00DC007F00EC008F0180E8AEF85
:1089080044F0D8900832073206320532E82E85EF57
:1089180044F00550096E0A6A09500A10D8A497EF66
:1089280044F099EF44F0B9EF44F0D8900B34056E59
:108938000C34066E0D34076E0E34086E05500610A2
:1089480007100810D8A4ABEF44F0ADEF44F0B3EF34
:1089580044F0000E026E020E016EE8EF44F0000EC5
:10896800026E030E016EE8EF44F009280A10D8A43D
:10897800C0EF44F0C2EF44F0E4EF44F00BC005F060
:108988000CC006F00DC007F00EC008F0090ED89014
:108998000536063607360836E82ECBEF44F0055084
:1089A800061007100810D8B4DCEF44F0DFEF44F0ED
:1089B800010EE0EF44F0000E016E026AE8EF44F0A9
:1089C800000E026E040E016E1200000E0001CA6F46
:1089D800000ECB6F200ECC6F410ECD6F56EF45F0D9
:1089E80083EC48F0F50E00018C6F010E8D6F700E50
:1089F8008E6FCAC08FF0CBC090F0CCC091F0CDC0C4
:108A080092F0A4EC4DF0F50E016E010E026E7D0E93
:108A1800036E31EC4BF0000E0A6E4F0E0B6E0B50CE
:108A2800D8A4200E0C6E010E51EC4EF0000E0A6E0A
:108A3800F50E0B6E010E0C6E020E51EC4EF0CD864B
:108A4800060E526E130E516EAE0EE82EFED7512E44
:108A5800FCD7522EFAD7CD96020E526E040E516EE6
:108A6800BA0EE82EFED7512EFCD7522EFAD700D0D8
:108A7800CAC028F0CBC029F0CCC02AF0CDC02BF05A
:108A8800000E2C6E000E2D6E800E2E6E3F0E2F6E79
:108A9800EAEC4DF028C0CAF029C0CBF02AC0CCF0CF
:108AA8002BC0CDF00001CDBF5EEF45F05CEF45F087
:108AB800F4EF44F0000ECA6F000ECB6F200ECC6F9F
:068AC800410ECD6F12000B
:108AD0006F00D8FF55F06F00DCFF56F06F00E0FF2D
:108AE00057F06F00D4FF58F03901A0AF7AEF45F08E
:108AF0007CEF45F0D1EF45F03A0147A182EF45F018
:108B000084EF45F0A2EF45F0010E1B6E050E1A6EC4
:108B1000070E1D6ED00E1C6ECDEC46F052EC4FF0E1
:108B2000C0EC4EF052EC4FF0020E546E860E536EB7
:108B3000990EE82EFED7532EFCD7542EFAD70000FC
:108B40003A01479147A3A7EF45F0A9EF45F0D1EFD0
:108B500045F0010E1B6E260E1A6E070E1D6ED00E0E
:108B60001C6ECDEC46F052EC4FF0E9EC44F0010EF7
:108B70001B6E490E1A6E0F0E1D6EA00E1C6ECDECF4
:108B800046F052EC4FF0020E546E860E536E990E64
:108B9000E82EFED7532EFCD7542EFAD700003A0108
:108BA00047933901A09F600063F1F5FF60005FF11A
:108BB000F8FF60005BF1F7FF600057F1F6FF11006E
:108BC000000E0101086F000E076F600003F4D9FF6B
:108BD000600007F4DAFF6F007FFFF6FF200EF76EEC
:108BE000000EF86E0800F5502A0AD8A4FAEF45F0F6
:108BF000FCEF45F039EF46F0600003F4D9FF600068
:108C000007F4DAFFDF2A60000BF4D9FF60000FF4ED
:108C1000DAFF6F007CFF04F1020EDE266F007CFF9E
:108C200005F1000EDD22600013F4D9FF600017F497
:108C3000DAFF6F0078FF07F16F0074FF08F152EF61
:108C400046F00A0E07036F00CCFF04F16F00D0FF5F
:108C500005F10803F350052706510425076F000EA0
:108C60000521086F600003F4D9FF600007F4DAFF04
:108C7000DF2A600003F4D9FF600007F4DAFF6F0019
:108C80007FFFF6FF200EF76E000EF86E0800F5501D
:108C9000D00F066F090E066550EF46F052EF46F012
:108CA00021EF46F007C100F108C101F11200000EEA
:108CB000096E000E086E600007F0D9FF60000BF02F
:108CC000DAFF6F007FFFF6FF200EF76E000EF86EE2
:108CD0000800F5502A0AD8A470EF46F072EF46F06B
:108CE000AFEF46F0600007F0D9FF60000BF0DAFF4D
:108CF000DF2A60000FF0D9FF600013F0DAFF6F0089
:108D00007CFF05F0020EDE266F007CFF06F0000EF1
:108D1000DD22600017F0D9FF60001BF0DAFF6F0062
:108D200078FF08F06F0074FF09F0C8EF46F00A0EF4
:108D300008026F00CCFF05F06F00D0FF06F00902BB
:108D4000F350062607500524086E000E0620096E13
:108D5000600007F0D9FF60000BF0DAFFDF2A600047
:108D600007F0D9FF60000BF0DAFF6F007FFFF6FF1E
:108D7000200EF76E000EF86E0800F550D00F076E4B
:108D8000090E0764C6EF46F0C8EF46F097EF46F0CD
:108D900008C001F009C002F01200400E0D6E420E34
:108DA0000E6E0F0E0F6E000E106E1AC011F01BC06B
:108DB00012F0136A146A8BEC49F0D89010320F321B
:108DC0000E320D320DC022F00EC023F00FC024F081
:108DD00010C025F01CC001F01DC002F0036A046A37
:108DE000E80E056E030E066E000E076E000E086E8E
:108DF00066EC4BF001C00DF002C00EF003C00FF0A6
:108E000004C010F0D8902234116E2334126E243432
:108E1000136E2534146E8BEC49F00DC026F00EC095
:108E200027F00FC028F010C029F0000E2B6E000EA6
:108E30002A6E27EF47F0CD84210EE82EFED70000E2
:108E4000CD94210EE82EFED700002A4A2B2A2A5064
:108E50001E6E2B501F6E206A216A26501E5C275002
:108E60001F582850205829502158D8A03AEF47F0D1
:108E70003CEF47F01BEF47F01200010102510311D4
:108E8000D8B445EF47F047EF47F050EF47F00251B5
:108E90000311D8A44EEF47F050EF47F055EF47F0DD
:108EA000005158EC4FF0A9EF47F020EE09F00251C5
:108EB000D9260351DA22DE50DE10D8B462EF47F033
:108EC00064EF47F07FEF47F020EE09F00251D9261A
:108ED0000351DA2210EE02F00251E1260351E222A0
:108EE000DE50E65CE650800A086FDE50800A0859C2
:108EF000D8B07DEF47F07FEF47F0A9EF47F020EEC5
:108F000002F00251D9260351DA226F0078FF04F1F2
:108F10006F0074FF05F160000BF4D9FF60000FF4DF
:108F2000DAFF6F0078FF06F16F0074FF07F104515C
:108F30000625D96E05510721DA6E600003F4DFFFC4
:108F400020EE02F00251D9260351DA22DE2A000E69
:108F5000DD221200030E3E01F16F00D000D00000B0
:108F60003E01F881F8B1B7EF47F0B9EF47F0B2EF43
:108F700047F0EF516F00C0FB51F0526A51C052F000
:108F8000516A51100101A36F5250A46FA3C101F0A7
:108F9000A4C102F0000E02BEFF0E036E046E010EAD
:108FA0005FEC40F001C00FF002C010F003C011F000
:108FB00004C012F0330E136E330E146E530E156E82
:108FC0003A0E166E3BEC35F00FC0ACF010C0ADF0B1
:108FD00011C0AEF012C0AFF0B60E00018C6F8D6BF9
:108FE000700E8E6FACC08FF0ADC090F0AEC091F03F
:108FF000AFC092F0A4EC4DF0B60E016E026A810E85
:10900000036E31EC4BF0000E0A6E210E0B6E0B500E
:10901000D8A4200E0C6E010E51EC4EF0000E0A6E1C
:10902000B60E0B6E0C6A020E51EC4EF0120003509D
:109030000410D8B41EEF48F020EF48F029EF48F0B4
:1090400003500410D8A427EF48F029EF48F02EEF82
:1090500048F0015059EC4FF082EF48F020EE09F053
:109060000350D9260450DA22DE50DE10D8B43BEF8C
:1090700048F03DEF48F058EF48F020EE09F003507B
:10908000D9260450DA2210EE02F00350E1260450F3
:10909000E222DE50E65CE650800A096EDE50800A6D
:1090A0000958D8B056EF48F058EF48F082EF48F032
:1090B00020EE02F00350D9260450DA226F0078FF28
:1090C00005F06F0074FF06F060000FF0D9FF60003C
:1090D00013F0DAFF6F0078FF07F06F0074FF08F0FD
:1090E00005500724D96E06500820DA6E600007F09C
:1090F000DFFF20EE02F00350D9260450DA22DE2AE8
:10910000000EDD221200C594010E1B6E050E1A6EB4
:10911000010E1D6E900E1C6ECDEC46F0010E1B6E06
:10912000260E1A6E010E1D6E900E1C6ECDEC46F0D2
:10913000010E1B6E490E1A6E010E1D6E900E1C6EF6
:10914000CDEC46F0010E1B6E5D0E1A6E010E1D6E0B
:10915000900E1C6ECDEC46F0010E1B6E880E1A6E42
:10916000010E1D6E900E1C6ECDEC46F0010E1B6EB6
:10917000B80E1A6E010E1D6E900E1C6ECDEC46F0F0
:10918000010E1B6EED0E1A6E010E1D6E900E1C6E02
:10919000CDEC46F0020E1B6E0B0E1A6E020E1D6E0B
:1091A000580E1C6ECDEC46F0030E2D6E8A0E2C6E02
:1091B000560EE82EFED72C2EFCD72D2EFAD71200F5
:1091C000000E01010015086F000E0115096F800ED9
:1091D00002150A6F7F0E03150B6F085109110A1152
:1091E0000B11D8A4F6EF48F0F8EF48F000EF49F083
:1091F000000E006F000E016F000E026F000E036F75
:10920000000E0415086F000E0515096F800E061577
:109210000A6F7F0E07150B6F085109110A110B1108
:10922000D8A415EF49F017EF49F01FEF49F0000EF1
:10923000046F000E056F000E066F000E076F0451DD
:1092400000190FE1055101190CE10651021909E15C
:1092500007510319D8B42FEF49F031EF49F034EF3B
:1092600049F0D89035EF49F0D8801200000E011473
:10927000096E000E02140A6E800E03140B6E7F0E30
:1092800004140C6E09500A100B100C10D8A44BEFEC
:1092900049F04DEF49F055EF49F0000E016E000E18
:1092A000026E000E036E000E046E000E0514096EB1
:1092B000000E06140A6E800E07140B6E7F0E081443
:1092C0000C6E09500A100B100C10D8A46AEF49F06C
:1092D0006CEF49F074EF49F0000E056E000E066E5B
:1092E000000E076E000E086E055001180FE10650C3
:1092F00002180CE10750031809E108500418D8B40B
:1093000084EF49F086EF49F089EF49F0D8908AEF71
:1093100049F0D8801200000E156E000E166E000E79
:10932000176E000E186E1150121013101410D8B4CE
:109330009CEF49F09EEF49F0D4EF49F0010E196E11
:10934000A8EF49F0D8901136123613361436192A80
:1093500014AEADEF49F0AFEF49F0A2EF49F0D8906D
:10936000153616361736183611500D5C12500E5839
:1093700013500F5814501058D8A0C1EF49F0C3EF44
:1093800049F0CCEF49F011500D5E12500E5A1350B7
:109390000F5A1450105A1580D890143213321232CA
:1093A0001132192EAFEF49F015C00DF016C00EF0B6
:1093B00017C00FF018C010F01200000E0101016F6D
:1093C0000F0E006FEDEC4CF0C36AC56A010E0FEC96
:1093D0004FF0380E0FEC4FF00C0E0FEC4FF0060E66
:1093E0000FEC4FF0000E0101096F310E0A6F0A51A8
:1093F000D8A4200E0B6F010E0DEC4EF0000E0101F3
:10940000096F5D0E0A6F0A51D8A4200E0B6F020E71
:109410000DEC4EF01A0E01010F6F5E0E0E6F6E0E08
:10942000E82EFED70E2FFCD70F2FFAD70000120020
:1094300034EF4AF060001FF4F6FF600023F4F7FFFA
:10944000000EF86E1F0EF76403D00800F55007D029
:109450006F00DBFFE1FF6F00DFFFE2FFE750FEEC94
:109460004EF00101074B082B60001FF4F6FF60006F
:1094700023F4F7FF000EF86E1F0EF76403D0080008
:10948000F55007D06F00DBFFE1FF6F00DFFFE2FF69
:10949000E7500009D8A44FEF4AF051EF4AF01AEF15
:1094A0004AF01200010115BF5AEF4AF058EF4AF096
:1094B0005EEF4AF0000E156F000E146F000E186F6D
:1094C000000E176F71EF4AF0000E016F200E006F53
:1094D00010C102F111C103F13DEC47F00101174B3E
:1094E000182B1451175D1851800A166F1551800AF8
:1094F0001659D8A07EEF4AF080EF4AF064EF4AF0A8
:1095000012C109F113C10AF110C10BF111C10CF123
:109510005CEC4DF01200A6EF4AF0600023F0F6FF7D
:10952000600027F0F7FF000EF86E1F0EF76403D0FF
:109530000800F55007D06F00DBFFE1FF6F00DFFF91
:10954000E2FFE75030EC4FF0084A092A600023F0B0
:10955000F6FF600027F0F7FF000EF86E1F0EF764AD
:1095600003D00800F55007D06F00DBFFE1FF6F006C
:10957000DFFFE2FFE7500009D8A4C1EF4AF0C3EFD4
:109580004AF08DEF4AF0120016BECBEF4AF0C9EF59
:109590004AF0CFEF4AF0000E166E000E156E000E68
:1095A000196E000E186EE1EF4AF0000E026E200EEA
:1095B000016E11C003F012C004F017EC48F0184A15
:1095C000192A1550185C1950800A176E1650800A17
:1095D0001758D8A0EEEF4AF0F0EF4AF0D5EF4AF076
:1095E00013C00AF014C00BF011C00CF012C00DF043
:1095F0002FEC4EF01200000E0101046F000E036FFD
:1096000004EF4BF0034B042B03510025D96E04519A
:109610000121DA6EDF50D8A410EF4BF012EF4BF0BF
:1096200002EF4BF017EF4BF0034B042B022B6000C3
:109630000BF4F6FF200EF76E000EF86E03510025B6
:10964000D96E04510121DA6E08006F00D7FFDFFFE9
:10965000DF50D8A42EEF4BF030EF4BF014EF4BF06F
:109660001200000E056E000E046E39EF4BF0044A36
:10967000052A04500124D96E05500220DA6EDF500D
:10968000D8A445EF4BF047EF4BF037EF4BF04CEFE2
:109690004BF0044A052A032A60000FF0F6FF200E63
:1096A000F76E000EF86E04500124D96E05500220AA
:1096B000DA6E08006F00D7FFDFFFDF50D8A463EF3A
:1096C0004BF065EF4BF049EF4BF01200000E096EC6
:1096D000000E0A6E000E0B6E000E0C6E01A073EFF2
:1096E0004BF075EF4BF07DEF4BF00550092606501F
:1096F0000A2207500B2208500C22D8900536063655
:1097000007360836D8900432033202320132015053
:10971000021003100410D8A490EF4BF092EF4BF01E
:109720006EEF4BF009C001F00AC002F00BC003F06D
:109730000CC004F0120002C109F103C10AF100C11A
:1097400007F101C108F1BAEF4BF0600027F4D9FF2F
:1097500060002BF4DAFFDF50066F094B0A2B600024
:109760001FF4D9FF600023F4DAFF60001BF4DFFF71
:10977000074B082B01010407D8A00507042906E1BF
:109780000529D8A4C6EF4BF0C8EF4BF0A5EF4BF07E
:10979000120003C00AF004C00BF001C008F002C0C0
:1097A00009F0E8EF4BF060002BF0D9FF60002FF0DC
:1097B000DAFFDF50076E0A4A0B2A600023F0D9FF58
:1097C000600027F0DAFF60001FF0DFFF084A092A77
:1097D0000506D8A00606052806E10628D8A4F3EF5A
:1097E0004BF0F5EF4BF0D3EF4BF01200010103BF4C
:1097F000FCEF4BF0FEEF4BF008EF4CF000C100F136
:1098000001C101F102C102F103C103F121EF4CF0EA
:1098100000C104F101C105F102C106F103C107F164
:10982000041F051F061F071F042B000E0523062318
:10983000072304C100F105C101F106C102F107C10E
:1098400003F1120004BE27EF4CF029EF4CF033EF88
:109850004CF001C001F002C002F003C003F004C0EC
:1098600004F04CEF4CF001C005F002C006F003C05C
:1098700007F004C008F0051E061E071E081E052A74
:10988000000E06220722082205C001F006C002F0E1
:1098900007C003F008C004F012000AC20DF260EF26
:1098A0004CF008C299F109C29AF10D0E01019B6FAB
:1098B000020E9C6F0BC29DF10CC29EF1F1EC3AF0CE
:1098C000600037F8F6FF200EF76E000EF86E080005
:1098D000F5500009D8A46FEF4CF071EF4CF051EF48
:1098E0004CF0000E0201096F000E086F1200AC0E62
:1098F000F66E9E0EF76E000EF86E00EECAF010EED9
:1099000004F009006F00D7FFEEFFE550E150F9E1E8
:1099100000EE9FF1610EEE6AE806FDE100EEA0F0B8
:109920002A0EEE6AE806FDE15B6A5A6A596A080E79
:10993000D56E400ED66E000ED76E000120EF4FF0B0
:109940004DC050F0B1EF4CF04BC03DF04CC03EF07C
:10995000500E3F6E406A4EC041F04FC042F031ECB5
:109960003CF0600043F1F6FF200EF76E000EF86E3B
:109970000800F5500009D8A4C0EF4CF0C2EF4CF03D
:10998000A4EF4CF0000E4C6E000E4B6E1200110E48
:109990000201156F020E166F0EC217F20FC218F2F7
:1099A000000E1A6F000E196F000E216F000E206F4F
:1099B000170E086F020E096F10C20AF2150E0B6F18
:1099C000020E0C6F4DEC4CF0020119510E25D96EB0
:1099D0001A510F21DA6EDF6A1200000E0101036FC7
:1099E000000E026F07EF4DF0000E056F000E046FC2
:1099F000044B052B055109E1A50E045DD8A003EF2A
:109A00004DF005EF4DF0F8EF4CF0024B032B0051F9
:109A1000025D01510359D8A010EF4DF012EF4DF047
:109A2000F4EF4CF01200000E046E000E036E2CEFEB
:109A30004DF0000E066E000E056E054A062A065011
:109A400009E1A50E055CD8A028EF4DF02AEF4DF0F6
:109A50001DEF4DF0034A042A0150035C02500458E4
