:04000000FEEFFFF020
:1020000000C2260000000000000068290000000057
:102010001C2800000000000000000000000000007C
:1020200000000000000000000000000000000000B0
:1020300000000000000000000000000000882800F0
:0F20400066280044280000000025640D0A0000F7
:102050001F50D96EDA6A6F007FFFF6FF200EF76E11
:10206000000EF86E0800F550250AD8A43AEF10F0DB
:102070003CEF10F0FFEF10F01F50D96EDA6ADF2A44
:10208000000E476E000E466E46C04CF04868496828
:102090001F50D96EDA6ADF50236E60008FF0F6FFB2
:1020A000200EF76E000EF86E0800F550640AD8B4E2
:1020B0005CEF10F05EEF10F06FEF10F060008FF04B
:1020C000F6FF200EF76E000EF86E0800F550690A54
:1020D000D8A46DEF10F06FEF10F0F9EF10F0205072
:1020E000D96EDA6A020EDF26DF5CD96EDA6A6F001B
:1020F00078FF24F06F0078FF25F01F50D96EDA6A60
:102100002328DF6E200E286E25BE89EF10F08CEF9D
:1021100010F0010E8DEF10F0000E226E28062850F0
:10212000600FD96EDA6A24C013F025C014F0000ED7
:10213000166E0A0E156EE3EC11F013C019F014C000
:102140001AF0F4EC13F01950300FDF6E24C001F0D8
:1021500025C002F0000E046E0A0E036E82EC11F030
:1021600001C024F002C025F024502510D8B4BBEFE4
:1021700010F0BDEF10F0C5EF10F02850D8A4C3EF59
:1021800010F0C5EF10F08EEF10F02850D8B4CBEF60
:1021900010F0CDEF10F0EEEF10F02250D8B4D3EFE6
:1021A00010F0D5EF10F0EEEF10F028062850600F79
:1021B000D96EDA6A2D0EDF6EEEEF10F02850600F48
:1021C000D96EDA6ADF50216E2150036E046A1DC099
:1021D00005F01EC006F016EC11F0282A200E281873
:1021E000D8A4F5EF10F0F7EF10F0DEEF10F015EFD8
:1021F00011F01F50D96EDA6ADF2A15EF11F01F5067
:10220000D96EDA6A6F007FFFF6FF200EF76E000EC0
:10221000F86E0800F550036E046A1DC005F01EC07C
:1022200006F016EC11F0F9EF10F012000550061050
:10223000D8B41DEF11F01FEF11F028EF11F0055089
:102240000610D8A426EF11F028EF11F02DEF11F0B1
:10225000035064EC14F081EF11F020EE09F005500A
:10226000D9260650DA22DE50DE10D8B43AEF11F04B
:102270003CEF11F057EF11F020EE09F00550D92690
:102280000650DA2210EE02F00550E1260650E22256
:10229000DE50E65CE650800A0B6EDE50800A0B587A
:1022A000D8B055EF11F057EF11F081EF11F020EE9B
:1022B00002F00550D9260650DA226F0078FF07F0A9
:1022C0006F0074FF08F0600017F0D9FF60001BF08A
:1022D000DAFF6F0078FF09F06F0074FF0AF0075013
:1022E0000924D96E08500A20DA6E60000FF0DFFF73
:1022F00020EE02F00550D9260650DA22DE2A000E22
:10230000DD221200066A04BE8AEF11F088EF11F098
:1023100090EF11F0036C041ED8B0042A010E066E73
:1023200002BE97EF11F095EF11F09DEF11F0016CE7
:10233000021ED8B0022A010E061A000E086E000E08
:10234000076E03500410D8B4A8EF11F0AAEF11F0F3
:10235000D2EF11F0010E056EB2EF11F0D8900336F6
:102360000436052A04AEB7EF11F0B9EF11F0AEEF65
:1023700011F0D890073608360350015C045002581B
:10238000D8A0C5EF11F0C7EF11F0CCEF11F003505A
:10239000015E0450025A0780D89004320332052EA1
:1023A000B9EF11F00650D8B4D8EF11F0DAEF11F010
:1023B000DEEF11F0076C081ED8B0082A07C001F044
:1023C00008C002F01200186A14BEEBEF11F0E9EF3A
:1023D00011F0F1EF11F0136C141ED8B0142A010E95
:1023E000186E16BEF8EF11F0F6EF11F0FCEF11F0D9
:1023F000156C161ED8B0162A15501610D8B403EF57
:1024000012F005EF12F029EF12F0010E176E0DEF2A
:1024100012F0D89015361636172A16AE12EF12F0B3
:1024200014EF12F009EF12F01550135C1650145807
:10243000D8A01DEF12F01FEF12F023EF12F015508D
:10244000135E1650145AD89016321532172E14EF08
:1024500012F01850D8B42FEF12F031EF12F035EF20
:1024600012F0136C141ED8B0142A13C013F014C049
:1024700014F01200000E236E000E226E000E216E6C
:10248000000E206E1B50195C1A50800A1D6E1C50E5
:10249000800A1D58D8B04FEF12F051EF12F05DEFE7
:1024A00012F019C022F01AC023F0010E1B24206E76
:1024B000000E1C20216E67EF12F0010E1B24226E0D
:1024C000000E1C20236E19C020F01AC021F0C3ECAE
:1024D00012F00DC013F00EC014F02250205C156EE7
:1024E00023502158166EE3EC11F0225013241E6E77
:1024F000235014201F6E1EC019F01FC01AF01200C6
:10250000BA6ABB6ABC6ABD6ABE6A3A01426B526B68
:10251000626B726B826BC268FD0EC36EC468FE0E86
:10252000C56E070EC66E4069FD0E506F6069FC0EE9
:10253000706F070E806F416B516B616B716B816BBC
:102540004369536963697369070E836F446954690A
:10255000646974690F0E846F5A6B5B6B6A6B6B6B8B
:102560007A6B7B6B190EE86F160E186F456B466B16
:10257000476B556B566B576B656B666B676B856B03
:10258000866B876B12004DC001F04EC002F04FC049
:1025900003F050C004F02D0E056E7F0E066E950EF2
:1025A000076E4C0E086EF9EC12F0010E01244D6E10
:1025B000000E02204E6E000E03204F6E000E04200F
:1025C000506E4DC00FF04EC010F04FC011F050C013
:1025D00012F0120EF1EF12F0D890123211321032C6
:1025E0000F32E82EECEF12F00FC00DF010C00EF01D
:1025F0001200000E096E000E0A6E000E0B6E000E29
:102600000C6E01A006EF13F008EF13F010EF13F0BB
:102610000550092606500A2207500B2208500C22AA
:10262000D8900536063607360836D890043203327D
:10263000023201320150021003100410D8A423EF1B
:1026400013F025EF13F001EF13F009C001F00AC0F9
:1026500002F00BC003F00CC004F012008DEC14F07B
:1026600061EC13F0000E016E000E026ED8EC13F058
:1026700001C005F002C006F073EC14F0490E2E6E96
:10268000000E1A6E000E196E000E1C6E640E1B6E8C
:102690003AEC12F019C02FF01AC030F080EC14F0B0
:1026A000290E336E960E326E7F0EE82EFED7322E36
:1026B000FCD7332EFAD70000CB723EEF13F0FEEFBB
:1026C000FFF03D01D46BD66BD86BB00EDA6F800E85
:1026D000DB6FDC6B820EDD6F060EDE6F2E0EDF6FA2
:1026E000E06B800EE16FE26B000E016E000E026E79
:1026F000000E036E44EC14F0000E016E000E026E2C
:10270000000E036E33EC14F0000E016E000E026E2C
:10271000000E036E22EC14F0000E4B6E000E4A6E9B
:1027200012002BC02DF09FEF13F029C01DF02AC01E
:102730001EF02D0E1F6E2CC020F028EC10F0600053
:10274000B7F0F6FF200EF76E000EF86E0800F55099
:102750000009D8A4AEEF13F0B0EF13F095EF13F02B
:10276000000E2A6E000E296E1200D29A3901A19134
:10277000D280000E016E000E026E000E036EADECF4
:1027800014F03901A591D282000E016E000E026E86
:10279000000E036EA6EC14F03901A79BD284000E44
:1027A000016E000E026E000E036E9FEC14F012001C
:1027B00001500210D8B4DFEF13F0E1EF13F0EFEFA8
:1027C00013F0600007F0D9FF60000BF0DAFFFF0E96
:1027D000DE6EFF0EDE6EFF0EDE6EFF0EDD6E01683A
:1027E00002680368046812001ABEF9EF13F0FBEFE9
:1027F00013F001EF14F019C019F01AC01AF00DEF20
:1028000014F019C01BF01AC01CF01B1E1C1E1B4A22
:102810001C2A1BC019F01CC01AF01200016A3D01ED
:10282000DFAB15EF14F017EF14F020EF14F0DAAB74
:102830001CEF14F01EEF14F020EF14F0010E016EE7
:1028400001501200015002100310D8B42AEF14F006
:102850002CEF14F032EF14F001C034F002C035F068
:1028600003C036F01200015002100310D8B43BEF41
:1028700014F03DEF14F043EF14F001C037F002C044
:1028800038F003C039F01200015002100310D8B420
:102890004CEF14F04EEF14F054EF14F001C03AF086
:1028A00002C03BF003C03CF0120000EE60F0200ECE
:1028B000EE6AE806FDE100EE34F01D0EEE6AE80671
:1028C000FDE100012EEF13F0026E0EEC14F0000992
:1028D000D8B46DEF14F06FEF14F065EF14F0025000
:1028E000B4EC14F01200FF0E0524076EFF0E062054
:1028F000086E07C04DF008C04EF04F6A506A1200D3
:102900002F0E316E000E296E000E2A6E2EC02BF097
:10291000310E2C6E91EC13F0120096EC14F080EC5A
:1029200012F061EC13F0B5EC13F01200600E3901F7
:10293000D96FDB6BDD6B080EDF6FDE6B120001C041
:102940003DF002C03EF003C03FF0120001C040F075
:1029500002C041F003C042F0120001C043F002C0C7
:1029600044F003C045F01200016E600007F0D2FD94
:02297000120053
:020000040001F9
:04FFFC0055EF14F0B9
:020000040030CA
:0A0000008FFFF7FF9FFFFFFFFFFFD8
:00000001FF
