:10000000D70E006E500E016ECE0E026EDC0E036E29
:10001000590E046E9D0E056E9F0E066ED00E076E75
:10002000DF0E086EDD0E096EDB0E0A6E1F0E0B6E04
:10003000870E0C6E5E0E0D6E8F0E0E6E8B0E0F6E9B
:100060003AEC00F04DEC00F036EF00F055EC00F00B
:1000700036EF00F03F01CB6A3F01BB6A3A01506B9B
:100080003F01030EC36E3F01CD6A3F01BD6A3A01D5
:10009000706B3F01000EC56E1200000EE96EEA6A39
:1000A000100E126ED70ECD6E1200CBB0CBA25BEF4E
:1000B00000F064EF00F0CBB26DEF00F0CBB07DEF5D
:1000C00000F092EF00F01200000EE96EEA6AEF50C5
:1000D000CD6E98EC00F036EF00F0E92AE998E99A45
:1000E000E99CE99EEF50CD6E98EC00F055EC00F0E5
:1000F000122E8DEF00F0F1D71200E906E998E99A87
:10010000E99CE99EEF50CD6E98EC00F055EC00F0C4
:10011000123E8DEF00F0F1D71200000EE96E100EC6
:10012000126E1200EF50CD6E98EC00F036EF00F03A
:10013000640E236E320E256E320E246E2306FEE10F
:10014000640E236E2506FAE1320E256E2406F6E1D2
:0201500012009B
:020000040030CA
:0A000000F8FFFFFF9FFFFFFFFFFF67
:00000001FF
