:0400000010EF00F00D
:1000200038D0000EC56E0F0E206EFB0E216E19EF3C
:1000300000F0206220EF00F0000E226E31EF00F0A1
:10004000E8BEE86C206029EF00F0020E226E37EF68
:1000500000F0E8BEE86C206419D0010E226E3FEF7C
:1000600000F0206ECD6E0000000000000300600074
:100070008BF0CDFF000000000000000003006000D6
:100080008BF0CDFF00000000000003000000040E14
:1000900003000F0E146E640E14BE146C152A145E49
:1000A000FBE21506142615C062F0156A0A0E152A21
:1000B000145EFDE21506142615C061F014C060F050
:1000C000156AFB0E146E14BE146C640E152A145EB1
:1000D000FDE21506142615C072F0156A0A0E152ADF
:1000E000145EFDE21506142615C071F014C070F000
:0C00F0007AEF00F00000000011EF00F0BB
:020000040030CA
:0A000000F8FFFFFF9FFFFFFFFFFF67
:00000001FF
