:0400000057EF20F0A6
:0C20000000D750CEDC599D9FD0DFDD00E2
:104008002B102B102B102B102B102B102B102B10D0
:10401800DF102B102B102B102B102B102B102B100C
:104028002B102B102B102B102B102B102B102B10B0
:104038002B102B102B102B102B102B102B102B10A0
:104048002B102B102B102B102B102B102B102B1090
:104058002B102B102B102B102B102B102B102B1080
:104068002B102B102B102B102B102B102B102B1070
:104078002B102B102B102B102B102B102B102B1060
:104088002B102B102B102B102B102B102B102B1050
:104098002B102B102B102B102B102B102B102B1040
:1040A8002B102B10FF0056EF21F0000E186E000E9B
:1040B800176E85EF20F0CAA464EF20F066EF20F0B9
:1040C8007AEF20F01B4A1C2A1BC00AF01CC00BF018
:1040D80077EC21F0050E0E6E0F0E0D6EF10EE82E28
:1040E800FED70D2EFCD70E2EFAD70000CAB87FEFE8
:1040F80020F081EF20F085EF20F0000E186E010E01
:10410800176E17501810D8B48CEF20F08EEF20F0EF
:104118005FEF20F0050E0E6E0F0E0D6EF10EE82EFD
:10412800FED70D2EFCD70E2EFAD70000C2EF20F0D6
:10413800CAA6A1EF20F0A3EF20F0B7EF20F0194AAC
:104148001A2A19C00AF01AC00BF077EC21F0050EF4
:104158000E6E0F0E0D6EF10EE82EFED70D2EFCD74B
:104168000E2EFAD70000CAB8BCEF20F0BEEF20F040
:10417800C2EF20F0000E186E020E176E170418100A
:10418800D8B4C9EF20F0CBEF20F09CEF20F012005C
:104198000F0E19140D6E000E1A140E6E1BC00FF0C0
:1041A8001CC010F00F3A103AF00E10160F500F0BFB
:1041B8001012F00E0F160D500F10156E0E50101035
:1041C800166E230E15181610D8A4EDEF20F0EFEF99
:1041D80020F0F3EF20F0EFEC21F0FBEF20F0000EE1
:1041E8000B6E070E0A6E77EC21F0FEEC21F0000E44
:1041F800186E000E176E1200CFEC21F01AEC22F0A8
:1042080024EC22F00CEC22F01AEF21F02AEC22F038
:1042180059EC20F0020E126E860E116E990EE82EE1
:10422800FED7112EFCD7122EFAD70000020E17184F
:104238001810D8A422EF21F024EF21F00AEF21F082
:10424800CCEC20F095EC21F01AEF21F057EF20F09C
:10425800000E046EC80E036EDFEC21F0000E046E33
:10426800C80E036EDFEC21F0010E046E900E036E93
:10427800DFEC21F0030E076E8A0E066E560EE82E4E
:10428800FED7062EFCD7072EFAD7010E046E2C0E89
:10429800036EDFEC21F0000E046E640E036EDFEC9B
:1042A80021F01200580EF66E440EF76E000EF86EEE
:1042B80009006F00D4FF1FF009006F00D4FF20F041
:1042C80000EE13F00C0EEE6AE806FDE1080ED56E5E
:1042D800400ED66E000ED76E000EF86E200EF76EEA
:1042E800000100EF21F00B5007E10A0E0A5CD8B07C
:1042F80080EF21F082EF21F08EEF21F00A50010FBC
:104308000C6E600033F0F6FF08006F00D7FFBDFFAA
:1043180094EF21F0010EF66E08006F00D7FFBDFF85
:104328001200010EF66E0800F5500A6E0B6A77EC63
:1043380021F00B0E0E6E260E0D6E5E0EE82EFED7C9
:104348000D2EFCD70E2EFAD71200AFEF21F0C80EB3
:1043580000D0E82EFDD70106D8A00206012806E104
:104368000228D8A4BAEF21F0BCEF21F0ABEF21F07E
:02437800120031
:10437C00CC942CEC21F0060E096E130E086EAE0ECA
:10438C00E82EFED7082EFCD7092EFAD73901A16BDF
:10439C001100C56A010EF66E08006F00D7FFBDFF55
:1043AC00010EF66E08006F00D7FFCDFF3A01706B5F
:1043BC001200CC8803C001F004C002F0A9EC21F07B
:1043CC00CC98820E056EDE0EE82EFED7052EFCD79D
:1043DC001200CC8A1A0E0B6E5E0E0A6E6E0EE82E52
:1043EC00FED70A2EFCD70B2EFAD700D0CC9A12008F
:1043FC00CC880B0E0B6E260E0A6E5E0EE82EFED7C8
:10440C000A2EFCD70B2EFAD7CC981200D28ED28C57
:10441C00D28AD280390181819181A191D76A400ED3
:10442C00D66E080ED56E12003C0EC26EBA6A3A01F8
:10443C00406B010EC36EBB6A506B1200C46ABC6A3F
:0E444C003A01606BCC6A1200CC84120023008F
:020000040030CA
:0A000000F8FFFFFF9FFFFFFFFFFF67
:00000001FF
